{
  "_format": "hh-sol-artifact-1",
  "contractName": "SpermBank",
  "sourceName": "contracts/SpermBank.sol",
  "abi": [
    {
      "inputs": [],
      "stateMutability": "nonpayable",
      "type": "constructor"
    },
    {
      "anonymous": false,
      "inputs": [
        {
          "indexed": false,
          "internalType": "uint256",
          "name": "donationId",
          "type": "uint256"
        },
        {
          "indexed": false,
          "internalType": "address",
          "name": "donorAddress",
          "type": "address"
        }
      ],
      "name": "DonationReceived",
      "type": "event"
    },
    {
      "anonymous": false,
      "inputs": [
        {
          "indexed": false,
          "internalType": "address",
          "name": "donorAddress",
          "type": "address"
        },
        {
          "indexed": false,
          "internalType": "string",
          "name": "name",
          "type": "string"
        }
      ],
      "name": "DonorRegistered",
      "type": "event"
    },
    {
      "anonymous": false,
      "inputs": [
        {
          "indexed": false,
          "internalType": "address",
          "name": "receiverAddress",
          "type": "address"
        },
        {
          "indexed": false,
          "internalType": "uint256",
          "name": "donationId",
          "type": "uint256"
        }
      ],
      "name": "SpermReceived",
      "type": "event"
    },
    {
      "inputs": [],
      "name": "admin",
      "outputs": [
        {
          "internalType": "address",
          "name": "",
          "type": "address"
        }
      ],
      "stateMutability": "view",
      "type": "function"
    },
    {
      "inputs": [],
      "name": "donateSperm",
      "outputs": [],
      "stateMutability": "nonpayable",
      "type": "function"
    },
    {
      "inputs": [
        {
          "internalType": "uint256",
          "name": "",
          "type": "uint256"
        }
      ],
      "name": "donations",
      "outputs": [
        {
          "internalType": "uint256",
          "name": "id",
          "type": "uint256"
        },
        {
          "internalType": "address",
          "name": "donorAddress",
          "type": "address"
        },
        {
          "internalType": "uint256",
          "name": "timestamp",
          "type": "uint256"
        }
      ],
      "stateMutability": "view",
      "type": "function"
    },
    {
      "inputs": [
        {
          "internalType": "uint256",
          "name": "",
          "type": "uint256"
        }
      ],
      "name": "donorAddresses",
      "outputs": [
        {
          "internalType": "address",
          "name": "",
          "type": "address"
        }
      ],
      "stateMutability": "view",
      "type": "function"
    },
    {
      "inputs": [
        {
          "internalType": "address",
          "name": "",
          "type": "address"
        }
      ],
      "name": "donors",
      "outputs": [
        {
          "internalType": "address",
          "name": "donorAddress",
          "type": "address"
        },
        {
          "internalType": "string",
          "name": "name",
          "type": "string"
        },
        {
          "internalType": "uint256",
          "name": "age",
          "type": "uint256"
        },
        {
          "components": [
            {
              "internalType": "string",
              "name": "bloodType",
              "type": "string"
            },
            {
              "internalType": "bool",
              "name": "hav",
              "type": "bool"
            },
            {
              "internalType": "bool",
              "name": "hbv",
              "type": "bool"
            },
            {
              "internalType": "bool",
              "name": "hcv",
              "type": "bool"
            },
            {
              "internalType": "bool",
              "name": "venerealDisease",
              "type": "bool"
            }
          ],
          "internalType": "struct SpermBank.BloodInfo",
          "name": "bloodInfo",
          "type": "tuple"
        },
        {
          "components": [
            {
              "internalType": "uint256",
              "name": "semenVolume",
              "type": "uint256"
            },
            {
              "internalType": "uint256",
              "name": "spermCount",
              "type": "uint256"
            },
            {
              "internalType": "string",
              "name": "spermMotility",
              "type": "string"
            },
            {
              "internalType": "string",
              "name": "spermShape",
              "type": "string"
            }
          ],
          "internalType": "struct SpermBank.SemenTestInfo",
          "name": "semenTestInfo",
          "type": "tuple"
        },
        {
          "components": [
            {
              "components": [
                {
                  "internalType": "bool",
                  "name": "mentalRetardation",
                  "type": "bool"
                },
                {
                  "internalType": "bool",
                  "name": "mentalIllness",
                  "type": "bool"
                },
                {
                  "internalType": "bool",
                  "name": "epilepsy",
                  "type": "bool"
                },
                {
                  "internalType": "string[]",
                  "name": "otherConditions",
                  "type": "string[]"
                }
              ],
              "internalType": "struct SpermBank.MedicalHistory",
              "name": "medicalHistory",
              "type": "tuple"
            },
            {
              "components": [
                {
                  "internalType": "bool",
                  "name": "drugUse",
                  "type": "bool"
                },
                {
                  "internalType": "string[]",
                  "name": "otherConditions",
                  "type": "string[]"
                }
              ],
              "internalType": "struct SpermBank.PastHistory",
              "name": "pastHistory",
              "type": "tuple"
            },
            {
              "internalType": "string[]",
              "name": "geneticDisorders",
              "type": "string[]"
            },
            {
              "components": [
                {
                  "internalType": "string",
                  "name": "relation",
                  "type": "string"
                },
                {
                  "internalType": "string",
                  "name": "condition",
                  "type": "string"
                }
              ],
              "internalType": "struct SpermBank.FamilyHistory[]",
              "name": "familyHistory",
              "type": "tuple[]"
            }
          ],
          "internalType": "struct SpermBank.InterviewInfo",
          "name": "interviewInfo",
          "type": "tuple"
        },
        {
          "components": [
            {
              "internalType": "uint256",
              "name": "height",
              "type": "uint256"
            },
            {
              "internalType": "uint256",
              "name": "weight",
              "type": "uint256"
            },
            {
              "internalType": "string",
              "name": "bodyType",
              "type": "string"
            },
            {
              "internalType": "string",
              "name": "ethnicity",
              "type": "string"
            },
            {
              "internalType": "string",
              "name": "personality",
              "type": "string"
            },
            {
              "internalType": "string",
              "name": "education",
              "type": "string"
            },
            {
              "internalType": "string",
              "name": "religion",
              "type": "string"
            }
          ],
          "internalType": "struct SpermBank.PhysicalInfo",
          "name": "physicalInfo",
          "type": "tuple"
        },
        {
          "internalType": "bool",
          "name": "isRegistered",
          "type": "bool"
        }
      ],
      "stateMutability": "view",
      "type": "function"
    },
    {
      "inputs": [],
      "name": "getAllDonors",
      "outputs": [
        {
          "components": [
            {
              "internalType": "address",
              "name": "donorAddress",
              "type": "address"
            },
            {
              "internalType": "string",
              "name": "name",
              "type": "string"
            },
            {
              "internalType": "uint256",
              "name": "age",
              "type": "uint256"
            },
            {
              "components": [
                {
                  "internalType": "string",
                  "name": "bloodType",
                  "type": "string"
                },
                {
                  "internalType": "bool",
                  "name": "hav",
                  "type": "bool"
                },
                {
                  "internalType": "bool",
                  "name": "hbv",
                  "type": "bool"
                },
                {
                  "internalType": "bool",
                  "name": "hcv",
                  "type": "bool"
                },
                {
                  "internalType": "bool",
                  "name": "venerealDisease",
                  "type": "bool"
                }
              ],
              "internalType": "struct SpermBank.BloodInfo",
              "name": "bloodInfo",
              "type": "tuple"
            },
            {
              "components": [
                {
                  "internalType": "uint256",
                  "name": "semenVolume",
                  "type": "uint256"
                },
                {
                  "internalType": "uint256",
                  "name": "spermCount",
                  "type": "uint256"
                },
                {
                  "internalType": "string",
                  "name": "spermMotility",
                  "type": "string"
                },
                {
                  "internalType": "string",
                  "name": "spermShape",
                  "type": "string"
                }
              ],
              "internalType": "struct SpermBank.SemenTestInfo",
              "name": "semenTestInfo",
              "type": "tuple"
            },
            {
              "components": [
                {
                  "components": [
                    {
                      "internalType": "bool",
                      "name": "mentalRetardation",
                      "type": "bool"
                    },
                    {
                      "internalType": "bool",
                      "name": "mentalIllness",
                      "type": "bool"
                    },
                    {
                      "internalType": "bool",
                      "name": "epilepsy",
                      "type": "bool"
                    },
                    {
                      "internalType": "string[]",
                      "name": "otherConditions",
                      "type": "string[]"
                    }
                  ],
                  "internalType": "struct SpermBank.MedicalHistory",
                  "name": "medicalHistory",
                  "type": "tuple"
                },
                {
                  "components": [
                    {
                      "internalType": "bool",
                      "name": "drugUse",
                      "type": "bool"
                    },
                    {
                      "internalType": "string[]",
                      "name": "otherConditions",
                      "type": "string[]"
                    }
                  ],
                  "internalType": "struct SpermBank.PastHistory",
                  "name": "pastHistory",
                  "type": "tuple"
                },
                {
                  "internalType": "string[]",
                  "name": "geneticDisorders",
                  "type": "string[]"
                },
                {
                  "components": [
                    {
                      "internalType": "string",
                      "name": "relation",
                      "type": "string"
                    },
                    {
                      "internalType": "string",
                      "name": "condition",
                      "type": "string"
                    }
                  ],
                  "internalType": "struct SpermBank.FamilyHistory[]",
                  "name": "familyHistory",
                  "type": "tuple[]"
                }
              ],
              "internalType": "struct SpermBank.InterviewInfo",
              "name": "interviewInfo",
              "type": "tuple"
            },
            {
              "components": [
                {
                  "internalType": "uint256",
                  "name": "height",
                  "type": "uint256"
                },
                {
                  "internalType": "uint256",
                  "name": "weight",
                  "type": "uint256"
                },
                {
                  "internalType": "string",
                  "name": "bodyType",
                  "type": "string"
                },
                {
                  "internalType": "string",
                  "name": "ethnicity",
                  "type": "string"
                },
                {
                  "internalType": "string",
                  "name": "personality",
                  "type": "string"
                },
                {
                  "internalType": "string",
                  "name": "education",
                  "type": "string"
                },
                {
                  "internalType": "string",
                  "name": "religion",
                  "type": "string"
                }
              ],
              "internalType": "struct SpermBank.PhysicalInfo",
              "name": "physicalInfo",
              "type": "tuple"
            },
            {
              "internalType": "bool",
              "name": "isRegistered",
              "type": "bool"
            }
          ],
          "internalType": "struct SpermBank.Donor[]",
          "name": "",
          "type": "tuple[]"
        }
      ],
      "stateMutability": "view",
      "type": "function"
    },
    {
      "inputs": [],
      "name": "getDonationHistory",
      "outputs": [
        {
          "components": [
            {
              "internalType": "uint256",
              "name": "id",
              "type": "uint256"
            },
            {
              "internalType": "address",
              "name": "donorAddress",
              "type": "address"
            },
            {
              "internalType": "uint256",
              "name": "timestamp",
              "type": "uint256"
            }
          ],
          "internalType": "struct SpermBank.Donation[]",
          "name": "",
          "type": "tuple[]"
        }
      ],
      "stateMutability": "view",
      "type": "function"
    },
    {
      "inputs": [
        {
          "internalType": "address",
          "name": "_donorAddress",
          "type": "address"
        }
      ],
      "name": "getDonorInfo",
      "outputs": [
        {
          "components": [
            {
              "internalType": "address",
              "name": "donorAddress",
              "type": "address"
            },
            {
              "internalType": "string",
              "name": "name",
              "type": "string"
            },
            {
              "internalType": "uint256",
              "name": "age",
              "type": "uint256"
            },
            {
              "components": [
                {
                  "internalType": "string",
                  "name": "bloodType",
                  "type": "string"
                },
                {
                  "internalType": "bool",
                  "name": "hav",
                  "type": "bool"
                },
                {
                  "internalType": "bool",
                  "name": "hbv",
                  "type": "bool"
                },
                {
                  "internalType": "bool",
                  "name": "hcv",
                  "type": "bool"
                },
                {
                  "internalType": "bool",
                  "name": "venerealDisease",
                  "type": "bool"
                }
              ],
              "internalType": "struct SpermBank.BloodInfo",
              "name": "bloodInfo",
              "type": "tuple"
            },
            {
              "components": [
                {
                  "internalType": "uint256",
                  "name": "semenVolume",
                  "type": "uint256"
                },
                {
                  "internalType": "uint256",
                  "name": "spermCount",
                  "type": "uint256"
                },
                {
                  "internalType": "string",
                  "name": "spermMotility",
                  "type": "string"
                },
                {
                  "internalType": "string",
                  "name": "spermShape",
                  "type": "string"
                }
              ],
              "internalType": "struct SpermBank.SemenTestInfo",
              "name": "semenTestInfo",
              "type": "tuple"
            },
            {
              "components": [
                {
                  "components": [
                    {
                      "internalType": "bool",
                      "name": "mentalRetardation",
                      "type": "bool"
                    },
                    {
                      "internalType": "bool",
                      "name": "mentalIllness",
                      "type": "bool"
                    },
                    {
                      "internalType": "bool",
                      "name": "epilepsy",
                      "type": "bool"
                    },
                    {
                      "internalType": "string[]",
                      "name": "otherConditions",
                      "type": "string[]"
                    }
                  ],
                  "internalType": "struct SpermBank.MedicalHistory",
                  "name": "medicalHistory",
                  "type": "tuple"
                },
                {
                  "components": [
                    {
                      "internalType": "bool",
                      "name": "drugUse",
                      "type": "bool"
                    },
                    {
                      "internalType": "string[]",
                      "name": "otherConditions",
                      "type": "string[]"
                    }
                  ],
                  "internalType": "struct SpermBank.PastHistory",
                  "name": "pastHistory",
                  "type": "tuple"
                },
                {
                  "internalType": "string[]",
                  "name": "geneticDisorders",
                  "type": "string[]"
                },
                {
                  "components": [
                    {
                      "internalType": "string",
                      "name": "relation",
                      "type": "string"
                    },
                    {
                      "internalType": "string",
                      "name": "condition",
                      "type": "string"
                    }
                  ],
                  "internalType": "struct SpermBank.FamilyHistory[]",
                  "name": "familyHistory",
                  "type": "tuple[]"
                }
              ],
              "internalType": "struct SpermBank.InterviewInfo",
              "name": "interviewInfo",
              "type": "tuple"
            },
            {
              "components": [
                {
                  "internalType": "uint256",
                  "name": "height",
                  "type": "uint256"
                },
                {
                  "internalType": "uint256",
                  "name": "weight",
                  "type": "uint256"
                },
                {
                  "internalType": "string",
                  "name": "bodyType",
                  "type": "string"
                },
                {
                  "internalType": "string",
                  "name": "ethnicity",
                  "type": "string"
                },
                {
                  "internalType": "string",
                  "name": "personality",
                  "type": "string"
                },
                {
                  "internalType": "string",
                  "name": "education",
                  "type": "string"
                },
                {
                  "internalType": "string",
                  "name": "religion",
                  "type": "string"
                }
              ],
              "internalType": "struct SpermBank.PhysicalInfo",
              "name": "physicalInfo",
              "type": "tuple"
            },
            {
              "internalType": "bool",
              "name": "isRegistered",
              "type": "bool"
            }
          ],
          "internalType": "struct SpermBank.Donor",
          "name": "",
          "type": "tuple"
        }
      ],
      "stateMutability": "view",
      "type": "function"
    },
    {
      "inputs": [
        {
          "internalType": "uint256",
          "name": "_donationId",
          "type": "uint256"
        }
      ],
      "name": "getReceiverByDonationId",
      "outputs": [
        {
          "components": [
            {
              "internalType": "address",
              "name": "receiverAddress",
              "type": "address"
            },
            {
              "internalType": "uint256",
              "name": "donationId",
              "type": "uint256"
            },
            {
              "internalType": "uint256",
              "name": "timestamp",
              "type": "uint256"
            }
          ],
          "internalType": "struct SpermBank.Receiver[]",
          "name": "",
          "type": "tuple[]"
        }
      ],
      "stateMutability": "view",
      "type": "function"
    },
    {
      "inputs": [],
      "name": "getReceiverHistory",
      "outputs": [
        {
          "components": [
            {
              "internalType": "address",
              "name": "receiverAddress",
              "type": "address"
            },
            {
              "internalType": "uint256",
              "name": "donationId",
              "type": "uint256"
            },
            {
              "internalType": "uint256",
              "name": "timestamp",
              "type": "uint256"
            }
          ],
          "internalType": "struct SpermBank.Receiver[]",
          "name": "",
          "type": "tuple[]"
        }
      ],
      "stateMutability": "view",
      "type": "function"
    },
    {
      "inputs": [
        {
          "internalType": "address",
          "name": "_receiver",
          "type": "address"
        },
        {
          "internalType": "uint256",
          "name": "_donationId",
          "type": "uint256"
        }
      ],
      "name": "receiveSperm",
      "outputs": [],
      "stateMutability": "nonpayable",
      "type": "function"
    },
    {
      "inputs": [
        {
          "internalType": "uint256",
          "name": "",
          "type": "uint256"
        }
      ],
      "name": "receivers",
      "outputs": [
        {
          "internalType": "address",
          "name": "receiverAddress",
          "type": "address"
        },
        {
          "internalType": "uint256",
          "name": "donationId",
          "type": "uint256"
        },
        {
          "internalType": "uint256",
          "name": "timestamp",
          "type": "uint256"
        }
      ],
      "stateMutability": "view",
      "type": "function"
    },
    {
      "inputs": [
        {
          "internalType": "string",
          "name": "_name",
          "type": "string"
        },
        {
          "internalType": "uint256",
          "name": "_age",
          "type": "uint256"
        },
        {
          "components": [
            {
              "internalType": "string",
              "name": "bloodType",
              "type": "string"
            },
            {
              "internalType": "bool",
              "name": "hav",
              "type": "bool"
            },
            {
              "internalType": "bool",
              "name": "hbv",
              "type": "bool"
            },
            {
              "internalType": "bool",
              "name": "hcv",
              "type": "bool"
            },
            {
              "internalType": "bool",
              "name": "venerealDisease",
              "type": "bool"
            }
          ],
          "internalType": "struct SpermBank.BloodInfo",
          "name": "_bloodInfo",
          "type": "tuple"
        },
        {
          "components": [
            {
              "internalType": "uint256",
              "name": "semenVolume",
              "type": "uint256"
            },
            {
              "internalType": "uint256",
              "name": "spermCount",
              "type": "uint256"
            },
            {
              "internalType": "string",
              "name": "spermMotility",
              "type": "string"
            },
            {
              "internalType": "string",
              "name": "spermShape",
              "type": "string"
            }
          ],
          "internalType": "struct SpermBank.SemenTestInfo",
          "name": "_semenTestInfo",
          "type": "tuple"
        },
        {
          "components": [
            {
              "components": [
                {
                  "internalType": "bool",
                  "name": "mentalRetardation",
                  "type": "bool"
                },
                {
                  "internalType": "bool",
                  "name": "mentalIllness",
                  "type": "bool"
                },
                {
                  "internalType": "bool",
                  "name": "epilepsy",
                  "type": "bool"
                },
                {
                  "internalType": "string[]",
                  "name": "otherConditions",
                  "type": "string[]"
                }
              ],
              "internalType": "struct SpermBank.MedicalHistory",
              "name": "medicalHistory",
              "type": "tuple"
            },
            {
              "components": [
                {
                  "internalType": "bool",
                  "name": "drugUse",
                  "type": "bool"
                },
                {
                  "internalType": "string[]",
                  "name": "otherConditions",
                  "type": "string[]"
                }
              ],
              "internalType": "struct SpermBank.PastHistory",
              "name": "pastHistory",
              "type": "tuple"
            },
            {
              "internalType": "string[]",
              "name": "geneticDisorders",
              "type": "string[]"
            },
            {
              "components": [
                {
                  "internalType": "string",
                  "name": "relation",
                  "type": "string"
                },
                {
                  "internalType": "string",
                  "name": "condition",
                  "type": "string"
                }
              ],
              "internalType": "struct SpermBank.FamilyHistory[]",
              "name": "familyHistory",
              "type": "tuple[]"
            }
          ],
          "internalType": "struct SpermBank.InterviewInfo",
          "name": "_interviewInfo",
          "type": "tuple"
        },
        {
          "components": [
            {
              "internalType": "uint256",
              "name": "height",
              "type": "uint256"
            },
            {
              "internalType": "uint256",
              "name": "weight",
              "type": "uint256"
            },
            {
              "internalType": "string",
              "name": "bodyType",
              "type": "string"
            },
            {
              "internalType": "string",
              "name": "ethnicity",
              "type": "string"
            },
            {
              "internalType": "string",
              "name": "personality",
              "type": "string"
            },
            {
              "internalType": "string",
              "name": "education",
              "type": "string"
            },
            {
              "internalType": "string",
              "name": "religion",
              "type": "string"
            }
          ],
          "internalType": "struct SpermBank.PhysicalInfo",
          "name": "_physicalInfo",
          "type": "tuple"
        }
      ],
      "name": "registerDonor",
      "outputs": [],
      "stateMutability": "nonpayable",
      "type": "function"
    }
  ],
  "bytecode": "0x608060405234801561001057600080fd5b5033600460006101000a81548173ffffffffffffffffffffffffffffffffffffffff021916908373ffffffffffffffffffffffffffffffffffffffff1602179055506154fe806100616000396000f3fe608060405234801561001057600080fd5b50600436106100cf5760003560e01c806398e36b041161008c578063c46a60a511610066578063c46a60a514610202578063ca0cdea814610232578063f851a44014610269578063f8626af814610287576100cf565b806398e36b0414610194578063998c7684146101b2578063bfd772fc146101d0576100cf565b80630527ba8f146100d45780631bfaf983146100f25780632b2aee5d1461010e57806346ee2eda1461013e578063620b1d16146101485780638bc152a914610178575b600080fd5b6100dc6102b9565b6040516100e9919061375a565b60405180910390f35b61010c60048036038101906101079190614013565b610382565b005b6101286004803603810190610123919061412c565b610831565b6040516101359190614168565b60405180910390f35b610146610870565b005b610162600480360381019061015d919061412c565b6109fd565b60405161016f9190614274565b60405180910390f35b610192600480360381019061018d91906142c2565b610bdb565b005b61019c610da8565b6040516101a99190614996565b60405180910390f35b6101ba611a8b565b6040516101c79190614274565b60405180910390f35b6101ea60048036038101906101e5919061412c565b611b54565b6040516101f9939291906149c7565b60405180910390f35b61021c600480360381019061021791906149fe565b611bae565b6040516102299190614af7565b60405180910390f35b61024c600480360381019061024791906149fe565b612804565b604051610260989796959493929190614d82565b60405180910390f35b6102716132ef565b60405161027e9190614168565b60405180910390f35b6102a1600480360381019061029c919061412c565b613315565b6040516102b093929190614e23565b60405180910390f35b60606002805480602002602001604051908101604052809291908181526020016000905b828210156103795783829060005260206000209060030201604051806060016040529081600082015481526020016001820160009054906101000a900473ffffffffffffffffffffffffffffffffffffffff1673ffffffffffffffffffffffffffffffffffffffff1673ffffffffffffffffffffffffffffffffffffffff168152602001600282015481525050815260200190600101906102dd565b50505050905090565b60128510156103c6576040517f08c379a00000000000000000000000000000000000000000000000000000000081526004016103bd90614ecc565b60405180910390fd5b60008060003373ffffffffffffffffffffffffffffffffffffffff1673ffffffffffffffffffffffffffffffffffffffff1681526020019081526020016000209050338160000160006101000a81548173ffffffffffffffffffffffffffffffffffffffff021916908373ffffffffffffffffffffffffffffffffffffffff1602179055508681600101908161045c91906150f8565b508581600201819055508481600301600082015181600001908161048091906150f8565b5060208201518160010160006101000a81548160ff02191690831515021790555060408201518160010160016101000a81548160ff02191690831515021790555060608201518160010160026101000a81548160ff02191690831515021790555060808201518160010160036101000a81548160ff02191690831515021790555090505083816005016000820151816000015560208201518160010155604082015181600201908161053291906150f8565b50606082015181600301908161054891906150f8565b509050508181600f016000820151816000015560208201518160010155604082015181600201908161057a91906150f8565b50606082015181600301908161059091906150f8565b5060808201518160040190816105a691906150f8565b5060a08201518160050190816105bc91906150f8565b5060c08201518160060190816105d291906150f8565b5090505060005b836060015151811015610676578160090160050184606001518281518110610604576106036151ca565b5b60200260200101519080600181540180825580915050600190039060005260206000209060020201600090919091909150600082015181600001908161064a91906150f8565b50602082015181600101908161066091906150f8565b505050808061066e90615228565b9150506105d9565b5082600001518160090160000160008201518160000160006101000a81548160ff02191690831515021790555060208201518160000160016101000a81548160ff02191690831515021790555060408201518160000160026101000a81548160ff02191690831515021790555060608201518160010190805190602001906106ff92919061336f565b5090505082602001518160090160020160008201518160000160006101000a81548160ff021916908315150217905550602082015181600101908051906020019061074b92919061336f565b50905050826040015181600901600401908051906020019061076e92919061336f565b5060018160160160006101000a81548160ff0219169083151502179055506001339080600181540180825580915050600190039060005260206000200160009091909190916101000a81548173ffffffffffffffffffffffffffffffffffffffff021916908373ffffffffffffffffffffffffffffffffffffffff1602179055507ff6bba8a2d47514955cc8e64ea9127b51d5615832d1fbd20ec40275f0876cfcbf3388604051610820929190615270565b60405180910390a150505050505050565b6001818154811061084157600080fd5b906000526020600020016000915054906101000a900473ffffffffffffffffffffffffffffffffffffffff1681565b6000803373ffffffffffffffffffffffffffffffffffffffff1673ffffffffffffffffffffffffffffffffffffffff16815260200190815260200160002060160160009054906101000a900460ff166108fe576040517f08c379a00000000000000000000000000000000000000000000000000000000081526004016108f5906152ec565b60405180910390fd5b60006002805490509050600260405180606001604052808381526020013373ffffffffffffffffffffffffffffffffffffffff1681526020014281525090806001815401808255809150506001900390600052602060002090600302016000909190919091506000820151816000015560208201518160010160006101000a81548173ffffffffffffffffffffffffffffffffffffffff021916908373ffffffffffffffffffffffffffffffffffffffff1602179055506040820151816002015550507f5c76d8902da3bf211ba4d69670a8d12c5f9a7b66b18b4348c392c4d2fe94a61e81336040516109f292919061530c565b60405180910390a150565b6060600080600090505b600380549050811015610a62578360038281548110610a2957610a286151ca565b5b90600052602060002090600302016001015403610a4f578180610a4b90615228565b9250505b8080610a5a90615228565b915050610a07565b5060008167ffffffffffffffff811115610a7f57610a7e6137ab565b5b604051908082528060200260200182016040528015610ab857816020015b610aa56133c8565b815260200190600190039081610a9d5790505b5090506000805b600380549050811015610bcf578560038281548110610ae157610ae06151ca565b5b90600052602060002090600302016001015403610bbc5760038181548110610b0c57610b0b6151ca565b5b90600052602060002090600302016040518060600160405290816000820160009054906101000a900473ffffffffffffffffffffffffffffffffffffffff1673ffffffffffffffffffffffffffffffffffffffff1673ffffffffffffffffffffffffffffffffffffffff16815260200160018201548152602001600282015481525050838381518110610ba257610ba16151ca565b5b60200260200101819052508180610bb890615228565b9250505b8080610bc790615228565b915050610abf565b50819350505050919050565b600460009054906101000a900473ffffffffffffffffffffffffffffffffffffffff1673ffffffffffffffffffffffffffffffffffffffff163373ffffffffffffffffffffffffffffffffffffffff1614610c6b576040517f08c379a0000000000000000000000000000000000000000000000000000000008152600401610c62906153a7565b60405180910390fd5b6002805490508110610cb2576040517f08c379a0000000000000000000000000000000000000000000000000000000008152600401610ca990615413565b60405180910390fd5b600360405180606001604052808473ffffffffffffffffffffffffffffffffffffffff16815260200183815260200142815250908060018154018082558091505060019003906000526020600020906003020160009091909190915060008201518160000160006101000a81548173ffffffffffffffffffffffffffffffffffffffff021916908373ffffffffffffffffffffffffffffffffffffffff160217905550602082015181600101556040820151816002015550507f0e934f8ac362a783627d556112f9a59467a85ea924367038b11a600565aca2658282604051610d9c929190615433565b60405180910390a15050565b6060600460009054906101000a900473ffffffffffffffffffffffffffffffffffffffff1673ffffffffffffffffffffffffffffffffffffffff163373ffffffffffffffffffffffffffffffffffffffff1614610e3a576040517f08c379a0000000000000000000000000000000000000000000000000000000008152600401610e31906153a7565b60405180910390fd5b600060018054905067ffffffffffffffff811115610e5b57610e5a6137ab565b5b604051908082528060200260200182016040528015610e9457816020015b610e816133ff565b815260200190600190039081610e795790505b50905060005b600180549050811015611a835760008060018381548110610ebe57610ebd6151ca565b5b9060005260206000200160009054906101000a900473ffffffffffffffffffffffffffffffffffffffff1673ffffffffffffffffffffffffffffffffffffffff1673ffffffffffffffffffffffffffffffffffffffff168152602001908152602001600020604051806101000160405290816000820160009054906101000a900473ffffffffffffffffffffffffffffffffffffffff1673ffffffffffffffffffffffffffffffffffffffff1673ffffffffffffffffffffffffffffffffffffffff168152602001600182018054610f9590614f1b565b80601f0160208091040260200160405190810160405280929190818152602001828054610fc190614f1b565b801561100e5780601f10610fe35761010080835404028352916020019161100e565b820191906000526020600020905b815481529060010190602001808311610ff157829003601f168201915b5050505050815260200160028201548152602001600382016040518060a001604052908160008201805461104190614f1b565b80601f016020809104026020016040519081016040528092919081815260200182805461106d90614f1b565b80156110ba5780601f1061108f576101008083540402835291602001916110ba565b820191906000526020600020905b81548152906001019060200180831161109d57829003601f168201915b505050505081526020016001820160009054906101000a900460ff161515151581526020016001820160019054906101000a900460ff161515151581526020016001820160029054906101000a900460ff161515151581526020016001820160039054906101000a900460ff161515151581525050815260200160058201604051806080016040529081600082015481526020016001820154815260200160028201805461116790614f1b565b80601f016020809104026020016040519081016040528092919081815260200182805461119390614f1b565b80156111e05780601f106111b5576101008083540402835291602001916111e0565b820191906000526020600020905b8154815290600101906020018083116111c357829003601f168201915b505050505081526020016003820180546111f990614f1b565b80601f016020809104026020016040519081016040528092919081815260200182805461122590614f1b565b80156112725780601f1061124757610100808354040283529160200191611272565b820191906000526020600020905b81548152906001019060200180831161125557829003601f168201915b505050505081525050815260200160098201604051806080016040529081600082016040518060800160405290816000820160009054906101000a900460ff161515151581526020016000820160019054906101000a900460ff161515151581526020016000820160029054906101000a900460ff1615151515815260200160018201805480602002602001604051908101604052809291908181526020016000905b828210156113c157838290600052602060002001805461133490614f1b565b80601f016020809104026020016040519081016040528092919081815260200182805461136090614f1b565b80156113ad5780601f10611382576101008083540402835291602001916113ad565b820191906000526020600020905b81548152906001019060200180831161139057829003601f168201915b505050505081526020019060010190611315565b50505050815250508152602001600282016040518060400160405290816000820160009054906101000a900460ff1615151515815260200160018201805480602002602001604051908101604052809291908181526020016000905b828210156114c957838290600052602060002001805461143c90614f1b565b80601f016020809104026020016040519081016040528092919081815260200182805461146890614f1b565b80156114b55780601f1061148a576101008083540402835291602001916114b5565b820191906000526020600020905b81548152906001019060200180831161149857829003601f168201915b50505050508152602001906001019061141d565b5050505081525050815260200160048201805480602002602001604051908101604052809291908181526020016000905b828210156115a657838290600052602060002001805461151990614f1b565b80601f016020809104026020016040519081016040528092919081815260200182805461154590614f1b565b80156115925780601f1061156757610100808354040283529160200191611592565b820191906000526020600020905b81548152906001019060200180831161157557829003601f168201915b5050505050815260200190600101906114fa565b50505050815260200160058201805480602002602001604051908101604052809291908181526020016000905b82821015611729578382906000526020600020906002020160405180604001604052908160008201805461160690614f1b565b80601f016020809104026020016040519081016040528092919081815260200182805461163290614f1b565b801561167f5780601f106116545761010080835404028352916020019161167f565b820191906000526020600020905b81548152906001019060200180831161166257829003601f168201915b5050505050815260200160018201805461169890614f1b565b80601f01602080910402602001604051908101604052809291908181526020018280546116c490614f1b565b80156117115780601f106116e657610100808354040283529160200191611711565b820191906000526020600020905b8154815290600101906020018083116116f457829003601f168201915b505050505081525050815260200190600101906115d3565b50505050815250508152602001600f82016040518060e0016040529081600082015481526020016001820154815260200160028201805461176990614f1b565b80601f016020809104026020016040519081016040528092919081815260200182805461179590614f1b565b80156117e25780601f106117b7576101008083540402835291602001916117e2565b820191906000526020600020905b8154815290600101906020018083116117c557829003601f168201915b505050505081526020016003820180546117fb90614f1b565b80601f016020809104026020016040519081016040528092919081815260200182805461182790614f1b565b80156118745780601f1061184957610100808354040283529160200191611874565b820191906000526020600020905b81548152906001019060200180831161185757829003601f168201915b5050505050815260200160048201805461188d90614f1b565b80601f01602080910402602001604051908101604052809291908181526020018280546118b990614f1b565b80156119065780601f106118db57610100808354040283529160200191611906565b820191906000526020600020905b8154815290600101906020018083116118e957829003601f168201915b5050505050815260200160058201805461191f90614f1b565b80601f016020809104026020016040519081016040528092919081815260200182805461194b90614f1b565b80156119985780601f1061196d57610100808354040283529160200191611998565b820191906000526020600020905b81548152906001019060200180831161197b57829003601f168201915b505050505081526020016006820180546119b190614f1b565b80601f01602080910402602001604051908101604052809291908181526020018280546119dd90614f1b565b8015611a2a5780601f106119ff57610100808354040283529160200191611a2a565b820191906000526020600020905b815481529060010190602001808311611a0d57829003601f168201915b50505050508152505081526020016016820160009054906101000a900460ff161515151581525050828281518110611a6557611a646151ca565b5b60200260200101819052508080611a7b90615228565b915050610e9a565b508091505090565b60606003805480602002602001604051908101604052809291908181526020016000905b82821015611b4b57838290600052602060002090600302016040518060600160405290816000820160009054906101000a900473ffffffffffffffffffffffffffffffffffffffff1673ffffffffffffffffffffffffffffffffffffffff1673ffffffffffffffffffffffffffffffffffffffff1681526020016001820154815260200160028201548152505081526020019060010190611aaf565b50505050905090565b60038181548110611b6457600080fd5b90600052602060002090600302016000915090508060000160009054906101000a900473ffffffffffffffffffffffffffffffffffffffff16908060010154908060020154905083565b611bb66133ff565b600460009054906101000a900473ffffffffffffffffffffffffffffffffffffffff1673ffffffffffffffffffffffffffffffffffffffff163373ffffffffffffffffffffffffffffffffffffffff1614611c46576040517f08c379a0000000000000000000000000000000000000000000000000000000008152600401611c3d906153a7565b60405180910390fd5b60008060008473ffffffffffffffffffffffffffffffffffffffff1673ffffffffffffffffffffffffffffffffffffffff168152602001908152602001600020604051806101000160405290816000820160009054906101000a900473ffffffffffffffffffffffffffffffffffffffff1673ffffffffffffffffffffffffffffffffffffffff1673ffffffffffffffffffffffffffffffffffffffff168152602001600182018054611cf890614f1b565b80601f0160208091040260200160405190810160405280929190818152602001828054611d2490614f1b565b8015611d715780601f10611d4657610100808354040283529160200191611d71565b820191906000526020600020905b815481529060010190602001808311611d5457829003601f168201915b5050505050815260200160028201548152602001600382016040518060a0016040529081600082018054611da490614f1b565b80601f0160208091040260200160405190810160405280929190818152602001828054611dd090614f1b565b8015611e1d5780601f10611df257610100808354040283529160200191611e1d565b820191906000526020600020905b815481529060010190602001808311611e0057829003601f168201915b505050505081526020016001820160009054906101000a900460ff161515151581526020016001820160019054906101000a900460ff161515151581526020016001820160029054906101000a900460ff161515151581526020016001820160039054906101000a900460ff1615151515815250508152602001600582016040518060800160405290816000820154815260200160018201548152602001600282018054611eca90614f1b565b80601f0160208091040260200160405190810160405280929190818152602001828054611ef690614f1b565b8015611f435780601f10611f1857610100808354040283529160200191611f43565b820191906000526020600020905b815481529060010190602001808311611f2657829003601f168201915b50505050508152602001600382018054611f5c90614f1b565b80601f0160208091040260200160405190810160405280929190818152602001828054611f8890614f1b565b8015611fd55780601f10611faa57610100808354040283529160200191611fd5565b820191906000526020600020905b815481529060010190602001808311611fb857829003601f168201915b505050505081525050815260200160098201604051806080016040529081600082016040518060800160405290816000820160009054906101000a900460ff161515151581526020016000820160019054906101000a900460ff161515151581526020016000820160029054906101000a900460ff1615151515815260200160018201805480602002602001604051908101604052809291908181526020016000905b8282101561212457838290600052602060002001805461209790614f1b565b80601f01602080910402602001604051908101604052809291908181526020018280546120c390614f1b565b80156121105780601f106120e557610100808354040283529160200191612110565b820191906000526020600020905b8154815290600101906020018083116120f357829003601f168201915b505050505081526020019060010190612078565b50505050815250508152602001600282016040518060400160405290816000820160009054906101000a900460ff1615151515815260200160018201805480602002602001604051908101604052809291908181526020016000905b8282101561222c57838290600052602060002001805461219f90614f1b565b80601f01602080910402602001604051908101604052809291908181526020018280546121cb90614f1b565b80156122185780601f106121ed57610100808354040283529160200191612218565b820191906000526020600020905b8154815290600101906020018083116121fb57829003601f168201915b505050505081526020019060010190612180565b5050505081525050815260200160048201805480602002602001604051908101604052809291908181526020016000905b8282101561230957838290600052602060002001805461227c90614f1b565b80601f01602080910402602001604051908101604052809291908181526020018280546122a890614f1b565b80156122f55780601f106122ca576101008083540402835291602001916122f5565b820191906000526020600020905b8154815290600101906020018083116122d857829003601f168201915b50505050508152602001906001019061225d565b50505050815260200160058201805480602002602001604051908101604052809291908181526020016000905b8282101561248c578382906000526020600020906002020160405180604001604052908160008201805461236990614f1b565b80601f016020809104026020016040519081016040528092919081815260200182805461239590614f1b565b80156123e25780601f106123b7576101008083540402835291602001916123e2565b820191906000526020600020905b8154815290600101906020018083116123c557829003601f168201915b505050505081526020016001820180546123fb90614f1b565b80601f016020809104026020016040519081016040528092919081815260200182805461242790614f1b565b80156124745780601f1061244957610100808354040283529160200191612474565b820191906000526020600020905b81548152906001019060200180831161245757829003601f168201915b50505050508152505081526020019060010190612336565b50505050815250508152602001600f82016040518060e001604052908160008201548152602001600182015481526020016002820180546124cc90614f1b565b80601f01602080910402602001604051908101604052809291908181526020018280546124f890614f1b565b80156125455780601f1061251a57610100808354040283529160200191612545565b820191906000526020600020905b81548152906001019060200180831161252857829003601f168201915b5050505050815260200160038201805461255e90614f1b565b80601f016020809104026020016040519081016040528092919081815260200182805461258a90614f1b565b80156125d75780601f106125ac576101008083540402835291602001916125d7565b820191906000526020600020905b8154815290600101906020018083116125ba57829003601f168201915b505050505081526020016004820180546125f090614f1b565b80601f016020809104026020016040519081016040528092919081815260200182805461261c90614f1b565b80156126695780601f1061263e57610100808354040283529160200191612669565b820191906000526020600020905b81548152906001019060200180831161264c57829003601f168201915b5050505050815260200160058201805461268290614f1b565b80601f01602080910402602001604051908101604052809291908181526020018280546126ae90614f1b565b80156126fb5780601f106126d0576101008083540402835291602001916126fb565b820191906000526020600020905b8154815290600101906020018083116126de57829003601f168201915b5050505050815260200160068201805461271490614f1b565b80601f016020809104026020016040519081016040528092919081815260200182805461274090614f1b565b801561278d5780601f106127625761010080835404028352916020019161278d565b820191906000526020600020905b81548152906001019060200180831161277057829003601f168201915b50505050508152505081526020016016820160009054906101000a900460ff16151515158152505090508060e001516127fb576040517f08c379a00000000000000000000000000000000000000000000000000000000081526004016127f2906154a8565b60405180910390fd5b80915050919050565b60006020528060005260406000206000915090508060000160009054906101000a900473ffffffffffffffffffffffffffffffffffffffff169080600101805461284d90614f1b565b80601f016020809104026020016040519081016040528092919081815260200182805461287990614f1b565b80156128c65780601f1061289b576101008083540402835291602001916128c6565b820191906000526020600020905b8154815290600101906020018083116128a957829003601f168201915b505050505090806002015490806003016040518060a00160405290816000820180546128f190614f1b565b80601f016020809104026020016040519081016040528092919081815260200182805461291d90614f1b565b801561296a5780601f1061293f5761010080835404028352916020019161296a565b820191906000526020600020905b81548152906001019060200180831161294d57829003601f168201915b505050505081526020016001820160009054906101000a900460ff161515151581526020016001820160019054906101000a900460ff161515151581526020016001820160029054906101000a900460ff161515151581526020016001820160039054906101000a900460ff16151515158152505090806005016040518060800160405290816000820154815260200160018201548152602001600282018054612a1390614f1b565b80601f0160208091040260200160405190810160405280929190818152602001828054612a3f90614f1b565b8015612a8c5780601f10612a6157610100808354040283529160200191612a8c565b820191906000526020600020905b815481529060010190602001808311612a6f57829003601f168201915b50505050508152602001600382018054612aa590614f1b565b80601f0160208091040260200160405190810160405280929190818152602001828054612ad190614f1b565b8015612b1e5780601f10612af357610100808354040283529160200191612b1e565b820191906000526020600020905b815481529060010190602001808311612b0157829003601f168201915b5050505050815250509080600901604051806080016040529081600082016040518060800160405290816000820160009054906101000a900460ff161515151581526020016000820160019054906101000a900460ff161515151581526020016000820160029054906101000a900460ff1615151515815260200160018201805480602002602001604051908101604052809291908181526020016000905b82821015612c69578382906000526020600020018054612bdc90614f1b565b80601f0160208091040260200160405190810160405280929190818152602001828054612c0890614f1b565b8015612c555780601f10612c2a57610100808354040283529160200191612c55565b820191906000526020600020905b815481529060010190602001808311612c3857829003601f168201915b505050505081526020019060010190612bbd565b50505050815250508152602001600282016040518060400160405290816000820160009054906101000a900460ff1615151515815260200160018201805480602002602001604051908101604052809291908181526020016000905b82821015612d71578382906000526020600020018054612ce490614f1b565b80601f0160208091040260200160405190810160405280929190818152602001828054612d1090614f1b565b8015612d5d5780601f10612d3257610100808354040283529160200191612d5d565b820191906000526020600020905b815481529060010190602001808311612d4057829003601f168201915b505050505081526020019060010190612cc5565b5050505081525050815260200160048201805480602002602001604051908101604052809291908181526020016000905b82821015612e4e578382906000526020600020018054612dc190614f1b565b80601f0160208091040260200160405190810160405280929190818152602001828054612ded90614f1b565b8015612e3a5780601f10612e0f57610100808354040283529160200191612e3a565b820191906000526020600020905b815481529060010190602001808311612e1d57829003601f168201915b505050505081526020019060010190612da2565b50505050815260200160058201805480602002602001604051908101604052809291908181526020016000905b82821015612fd15783829060005260206000209060020201604051806040016040529081600082018054612eae90614f1b565b80601f0160208091040260200160405190810160405280929190818152602001828054612eda90614f1b565b8015612f275780601f10612efc57610100808354040283529160200191612f27565b820191906000526020600020905b815481529060010190602001808311612f0a57829003601f168201915b50505050508152602001600182018054612f4090614f1b565b80601f0160208091040260200160405190810160405280929190818152602001828054612f6c90614f1b565b8015612fb95780601f10612f8e57610100808354040283529160200191612fb9565b820191906000526020600020905b815481529060010190602001808311612f9c57829003601f168201915b50505050508152505081526020019060010190612e7b565b50505050815250509080600f016040518060e0016040529081600082015481526020016001820154815260200160028201805461300d90614f1b565b80601f016020809104026020016040519081016040528092919081815260200182805461303990614f1b565b80156130865780601f1061305b57610100808354040283529160200191613086565b820191906000526020600020905b81548152906001019060200180831161306957829003601f168201915b5050505050815260200160038201805461309f90614f1b565b80601f01602080910402602001604051908101604052809291908181526020018280546130cb90614f1b565b80156131185780601f106130ed57610100808354040283529160200191613118565b820191906000526020600020905b8154815290600101906020018083116130fb57829003601f168201915b5050505050815260200160048201805461313190614f1b565b80601f016020809104026020016040519081016040528092919081815260200182805461315d90614f1b565b80156131aa5780601f1061317f576101008083540402835291602001916131aa565b820191906000526020600020905b81548152906001019060200180831161318d57829003601f168201915b505050505081526020016005820180546131c390614f1b565b80601f01602080910402602001604051908101604052809291908181526020018280546131ef90614f1b565b801561323c5780601f106132115761010080835404028352916020019161323c565b820191906000526020600020905b81548152906001019060200180831161321f57829003601f168201915b5050505050815260200160068201805461325590614f1b565b80601f016020809104026020016040519081016040528092919081815260200182805461328190614f1b565b80156132ce5780601f106132a3576101008083540402835291602001916132ce565b820191906000526020600020905b8154815290600101906020018083116132b157829003601f168201915b505050505081525050908060160160009054906101000a900460ff16905088565b600460009054906101000a900473ffffffffffffffffffffffffffffffffffffffff1681565b6002818154811061332557600080fd5b90600052602060002090600302016000915090508060000154908060010160009054906101000a900473ffffffffffffffffffffffffffffffffffffffff16908060020154905083565b8280548282559060005260206000209081019282156133b7579160200282015b828111156133b65782518290816133a691906150f8565b509160200191906001019061338f565b5b5090506133c49190613474565b5090565b6040518060600160405280600073ffffffffffffffffffffffffffffffffffffffff16815260200160008152602001600081525090565b604051806101000160405280600073ffffffffffffffffffffffffffffffffffffffff168152602001606081526020016000815260200161343e613498565b815260200161344b6134cf565b81526020016134586134f7565b815260200161346561352b565b81526020016000151581525090565b5b80821115613494576000818161348b9190613568565b50600101613475565b5090565b6040518060a00160405280606081526020016000151581526020016000151581526020016000151581526020016000151581525090565b6040518060800160405280600081526020016000815260200160608152602001606081525090565b604051806080016040528061350a6135a8565b81526020016135176135d6565b815260200160608152602001606081525090565b6040518060e00160405280600081526020016000815260200160608152602001606081526020016060815260200160608152602001606081525090565b50805461357490614f1b565b6000825580601f1061358657506135a5565b601f0160209004906000526020600020908101906135a491906135f2565b5b50565b6040518060800160405280600015158152602001600015158152602001600015158152602001606081525090565b6040518060400160405280600015158152602001606081525090565b5b8082111561360b5760008160009055506001016135f3565b5090565b600081519050919050565b600082825260208201905092915050565b6000819050602082019050919050565b6000819050919050565b61364e8161363b565b82525050565b600073ffffffffffffffffffffffffffffffffffffffff82169050919050565b600061367f82613654565b9050919050565b61368f81613674565b82525050565b6060820160008201516136ab6000850182613645565b5060208201516136be6020850182613686565b5060408201516136d16040850182613645565b50505050565b60006136e38383613695565b60608301905092915050565b6000602082019050919050565b60006137078261360f565b613711818561361a565b935061371c8361362b565b8060005b8381101561374d57815161373488826136d7565b975061373f836136ef565b925050600181019050613720565b5085935050505092915050565b6000602082019050818103600083015261377481846136fc565b905092915050565b6000604051905090565b600080fd5b600080fd5b600080fd5b600080fd5b6000601f19601f8301169050919050565b7f4e487b7100000000000000000000000000000000000000000000000000000000600052604160045260246000fd5b6137e38261379a565b810181811067ffffffffffffffff82111715613802576138016137ab565b5b80604052505050565b600061381561377c565b905061382182826137da565b919050565b600067ffffffffffffffff821115613841576138406137ab565b5b61384a8261379a565b9050602081019050919050565b82818337600083830152505050565b600061387961387484613826565b61380b565b90508281526020810184848401111561389557613894613795565b5b6138a0848285613857565b509392505050565b600082601f8301126138bd576138bc613790565b5b81356138cd848260208601613866565b91505092915050565b6138df8161363b565b81146138ea57600080fd5b50565b6000813590506138fc816138d6565b92915050565b600080fd5b600080fd5b60008115159050919050565b6139218161390c565b811461392c57600080fd5b50565b60008135905061393e81613918565b92915050565b600060a0828403121561395a57613959613902565b5b61396460a061380b565b9050600082013567ffffffffffffffff81111561398457613983613907565b5b613990848285016138a8565b60008301525060206139a48482850161392f565b60208301525060406139b88482850161392f565b60408301525060606139cc8482850161392f565b60608301525060806139e08482850161392f565b60808301525092915050565b600060808284031215613a0257613a01613902565b5b613a0c608061380b565b90506000613a1c848285016138ed565b6000830152506020613a30848285016138ed565b602083015250604082013567ffffffffffffffff811115613a5457613a53613907565b5b613a60848285016138a8565b604083015250606082013567ffffffffffffffff811115613a8457613a83613907565b5b613a90848285016138a8565b60608301525092915050565b600067ffffffffffffffff821115613ab757613ab66137ab565b5b602082029050602081019050919050565b600080fd5b6000613ae0613adb84613a9c565b61380b565b90508083825260208201905060208402830185811115613b0357613b02613ac8565b5b835b81811015613b4a57803567ffffffffffffffff811115613b2857613b27613790565b5b808601613b3589826138a8565b85526020850194505050602081019050613b05565b5050509392505050565b600082601f830112613b6957613b68613790565b5b8135613b79848260208601613acd565b91505092915050565b600060808284031215613b9857613b97613902565b5b613ba2608061380b565b90506000613bb28482850161392f565b6000830152506020613bc68482850161392f565b6020830152506040613bda8482850161392f565b604083015250606082013567ffffffffffffffff811115613bfe57613bfd613907565b5b613c0a84828501613b54565b60608301525092915050565b600060408284031215613c2c57613c2b613902565b5b613c36604061380b565b90506000613c468482850161392f565b600083015250602082013567ffffffffffffffff811115613c6a57613c69613907565b5b613c7684828501613b54565b60208301525092915050565b600067ffffffffffffffff821115613c9d57613c9c6137ab565b5b602082029050602081019050919050565b600060408284031215613cc457613cc3613902565b5b613cce604061380b565b9050600082013567ffffffffffffffff811115613cee57613ced613907565b5b613cfa848285016138a8565b600083015250602082013567ffffffffffffffff811115613d1e57613d1d613907565b5b613d2a848285016138a8565b60208301525092915050565b6000613d49613d4484613c82565b61380b565b90508083825260208201905060208402830185811115613d6c57613d6b613ac8565b5b835b81811015613db357803567ffffffffffffffff811115613d9157613d90613790565b5b808601613d9e8982613cae565b85526020850194505050602081019050613d6e565b5050509392505050565b600082601f830112613dd257613dd1613790565b5b8135613de2848260208601613d36565b91505092915050565b600060808284031215613e0157613e00613902565b5b613e0b608061380b565b9050600082013567ffffffffffffffff811115613e2b57613e2a613907565b5b613e3784828501613b82565b600083015250602082013567ffffffffffffffff811115613e5b57613e5a613907565b5b613e6784828501613c16565b602083015250604082013567ffffffffffffffff811115613e8b57613e8a613907565b5b613e9784828501613b54565b604083015250606082013567ffffffffffffffff811115613ebb57613eba613907565b5b613ec784828501613dbd565b60608301525092915050565b600060e08284031215613ee957613ee8613902565b5b613ef360e061380b565b90506000613f03848285016138ed565b6000830152506020613f17848285016138ed565b602083015250604082013567ffffffffffffffff811115613f3b57613f3a613907565b5b613f47848285016138a8565b604083015250606082013567ffffffffffffffff811115613f6b57613f6a613907565b5b613f77848285016138a8565b606083015250608082013567ffffffffffffffff811115613f9b57613f9a613907565b5b613fa7848285016138a8565b60808301525060a082013567ffffffffffffffff811115613fcb57613fca613907565b5b613fd7848285016138a8565b60a08301525060c082013567ffffffffffffffff811115613ffb57613ffa613907565b5b614007848285016138a8565b60c08301525092915050565b60008060008060008060c087890312156140305761402f613786565b5b600087013567ffffffffffffffff81111561404e5761404d61378b565b5b61405a89828a016138a8565b965050602061406b89828a016138ed565b955050604087013567ffffffffffffffff81111561408c5761408b61378b565b5b61409889828a01613944565b945050606087013567ffffffffffffffff8111156140b9576140b861378b565b5b6140c589828a016139ec565b935050608087013567ffffffffffffffff8111156140e6576140e561378b565b5b6140f289828a01613deb565b92505060a087013567ffffffffffffffff8111156141135761411261378b565b5b61411f89828a01613ed3565b9150509295509295509295565b60006020828403121561414257614141613786565b5b6000614150848285016138ed565b91505092915050565b61416281613674565b82525050565b600060208201905061417d6000830184614159565b92915050565b600081519050919050565b600082825260208201905092915050565b6000819050602082019050919050565b6060820160008201516141c56000850182613686565b5060208201516141d86020850182613645565b5060408201516141eb6040850182613645565b50505050565b60006141fd83836141af565b60608301905092915050565b6000602082019050919050565b600061422182614183565b61422b818561418e565b93506142368361419f565b8060005b8381101561426757815161424e88826141f1565b975061425983614209565b92505060018101905061423a565b5085935050505092915050565b6000602082019050818103600083015261428e8184614216565b905092915050565b61429f81613674565b81146142aa57600080fd5b50565b6000813590506142bc81614296565b92915050565b600080604083850312156142d9576142d8613786565b5b60006142e7858286016142ad565b92505060206142f8858286016138ed565b9150509250929050565b600081519050919050565b600082825260208201905092915050565b6000819050602082019050919050565b600081519050919050565b600082825260208201905092915050565b60005b8381101561436857808201518184015260208101905061434d565b60008484015250505050565b600061437f8261432e565b6143898185614339565b935061439981856020860161434a565b6143a28161379a565b840191505092915050565b6143b68161390c565b82525050565b600060a08301600083015184820360008601526143d98282614374565b91505060208301516143ee60208601826143ad565b50604083015161440160408601826143ad565b50606083015161441460608601826143ad565b50608083015161442760808601826143ad565b508091505092915050565b600060808301600083015161444a6000860182613645565b50602083015161445d6020860182613645565b50604083015184820360408601526144758282614374565b9150506060830151848203606086015261448f8282614374565b9150508091505092915050565b600081519050919050565b600082825260208201905092915050565b6000819050602082019050919050565b60006144d48383614374565b905092915050565b6000602082019050919050565b60006144f48261449c565b6144fe81856144a7565b935083602082028501614510856144b8565b8060005b8581101561454c578484038952815161452d85826144c8565b9450614538836144dc565b925060208a01995050600181019050614514565b50829750879550505050505092915050565b600060808301600083015161457660008601826143ad565b50602083015161458960208601826143ad565b50604083015161459c60408601826143ad565b50606083015184820360608601526145b482826144e9565b9150508091505092915050565b60006040830160008301516145d960008601826143ad565b50602083015184820360208601526145f182826144e9565b9150508091505092915050565b600081519050919050565b600082825260208201905092915050565b6000819050602082019050919050565b600060408301600083015184820360008601526146478282614374565b915050602083015184820360208601526146618282614374565b9150508091505092915050565b600061467a838361462a565b905092915050565b6000602082019050919050565b600061469a826145fe565b6146a48185614609565b9350836020820285016146b68561461a565b8060005b858110156146f257848403895281516146d3858261466e565b94506146de83614682565b925060208a019950506001810190506146ba565b50829750879550505050505092915050565b60006080830160008301518482036000860152614721828261455e565b9150506020830151848203602086015261473b82826145c1565b9150506040830151848203604086015261475582826144e9565b9150506060830151848203606086015261476f828261468f565b9150508091505092915050565b600060e0830160008301516147946000860182613645565b5060208301516147a76020860182613645565b50604083015184820360408601526147bf8282614374565b915050606083015184820360608601526147d98282614374565b915050608083015184820360808601526147f38282614374565b91505060a083015184820360a086015261480d8282614374565b91505060c083015184820360c08601526148278282614374565b9150508091505092915050565b60006101008301600083015161484d6000860182613686565b50602083015184820360208601526148658282614374565b915050604083015161487a6040860182613645565b506060830151848203606086015261489282826143bc565b915050608083015184820360808601526148ac8282614432565b91505060a083015184820360a08601526148c68282614704565b91505060c083015184820360c08601526148e0828261477c565b91505060e08301516148f560e08601826143ad565b508091505092915050565b600061490c8383614834565b905092915050565b6000602082019050919050565b600061492c82614302565b614936818561430d565b9350836020820285016149488561431e565b8060005b8581101561498457848403895281516149658582614900565b945061497083614914565b925060208a0199505060018101905061494c565b50829750879550505050505092915050565b600060208201905081810360008301526149b08184614921565b905092915050565b6149c18161363b565b82525050565b60006060820190506149dc6000830186614159565b6149e960208301856149b8565b6149f660408301846149b8565b949350505050565b600060208284031215614a1457614a13613786565b5b6000614a22848285016142ad565b91505092915050565b600061010083016000830151614a446000860182613686565b5060208301518482036020860152614a5c8282614374565b9150506040830151614a716040860182613645565b5060608301518482036060860152614a8982826143bc565b91505060808301518482036080860152614aa38282614432565b91505060a083015184820360a0860152614abd8282614704565b91505060c083015184820360c0860152614ad7828261477c565b91505060e0830151614aec60e08601826143ad565b508091505092915050565b60006020820190508181036000830152614b118184614a2b565b905092915050565b600082825260208201905092915050565b6000614b358261432e565b614b3f8185614b19565b9350614b4f81856020860161434a565b614b588161379a565b840191505092915050565b600060a0830160008301518482036000860152614b808282614374565b9150506020830151614b9560208601826143ad565b506040830151614ba860408601826143ad565b506060830151614bbb60608601826143ad565b506080830151614bce60808601826143ad565b508091505092915050565b6000608083016000830151614bf16000860182613645565b506020830151614c046020860182613645565b5060408301518482036040860152614c1c8282614374565b91505060608301518482036060860152614c368282614374565b9150508091505092915050565b60006080830160008301518482036000860152614c60828261455e565b91505060208301518482036020860152614c7a82826145c1565b91505060408301518482036040860152614c9482826144e9565b91505060608301518482036060860152614cae828261468f565b9150508091505092915050565b600060e083016000830151614cd36000860182613645565b506020830151614ce66020860182613645565b5060408301518482036040860152614cfe8282614374565b91505060608301518482036060860152614d188282614374565b91505060808301518482036080860152614d328282614374565b91505060a083015184820360a0860152614d4c8282614374565b91505060c083015184820360c0860152614d668282614374565b9150508091505092915050565b614d7c8161390c565b82525050565b600061010082019050614d98600083018b614159565b8181036020830152614daa818a614b2a565b9050614db960408301896149b8565b8181036060830152614dcb8188614b63565b90508181036080830152614ddf8187614bd9565b905081810360a0830152614df38186614c43565b905081810360c0830152614e078185614cbb565b9050614e1660e0830184614d73565b9998505050505050505050565b6000606082019050614e3860008301866149b8565b614e456020830185614159565b614e5260408301846149b8565b949350505050565b7f446f6e6f72206d757374206265206174206c656173742031382079656172732060008201527f6f6c642e00000000000000000000000000000000000000000000000000000000602082015250565b6000614eb6602483614b19565b9150614ec182614e5a565b604082019050919050565b60006020820190508181036000830152614ee581614ea9565b9050919050565b7f4e487b7100000000000000000000000000000000000000000000000000000000600052602260045260246000fd5b60006002820490506001821680614f3357607f821691505b602082108103614f4657614f45614eec565b5b50919050565b60008190508160005260206000209050919050565b60006020601f8301049050919050565b600082821b905092915050565b600060088302614fae7fffffffffffffffffffffffffffffffffffffffffffffffffffffffffffffffff82614f71565b614fb88683614f71565b95508019841693508086168417925050509392505050565b6000819050919050565b6000614ff5614ff0614feb8461363b565b614fd0565b61363b565b9050919050565b6000819050919050565b61500f83614fda565b61502361501b82614ffc565b848454614f7e565b825550505050565b600090565b61503861502b565b615043818484615006565b505050565b5b818110156150675761505c600082615030565b600181019050615049565b5050565b601f8211156150ac5761507d81614f4c565b61508684614f61565b81016020851015615095578190505b6150a96150a185614f61565b830182615048565b50505b505050565b600082821c905092915050565b60006150cf600019846008026150b1565b1980831691505092915050565b60006150e883836150be565b9150826002028217905092915050565b6151018261432e565b67ffffffffffffffff81111561511a576151196137ab565b5b6151248254614f1b565b61512f82828561506b565b600060209050601f8311600181146151625760008415615150578287015190505b61515a85826150dc565b8655506151c2565b601f19841661517086614f4c565b60005b8281101561519857848901518255600182019150602085019450602081019050615173565b868310156151b557848901516151b1601f8916826150be565b8355505b6001600288020188555050505b505050505050565b7f4e487b7100000000000000000000000000000000000000000000000000000000600052603260045260246000fd5b7f4e487b7100000000000000000000000000000000000000000000000000000000600052601160045260246000fd5b60006152338261363b565b91507fffffffffffffffffffffffffffffffffffffffffffffffffffffffffffffffff8203615265576152646151f9565b5b600182019050919050565b60006040820190506152856000830185614159565b81810360208301526152978184614b2a565b90509392505050565b7f446f6e6f72206973206e6f7420726567697374657265642e0000000000000000600082015250565b60006152d6601883614b19565b91506152e1826152a0565b602082019050919050565b60006020820190508181036000830152615305816152c9565b9050919050565b600060408201905061532160008301856149b8565b61532e6020830184614159565b9392505050565b7f4f6e6c792061646d696e2063616e20706572666f726d2074686973206163746960008201527f6f6e2e0000000000000000000000000000000000000000000000000000000000602082015250565b6000615391602383614b19565b915061539c82615335565b604082019050919050565b600060208201905081810360008301526153c081615384565b9050919050565b7f496e76616c696420646f6e6174696f6e2049442e000000000000000000000000600082015250565b60006153fd601483614b19565b9150615408826153c7565b602082019050919050565b6000602082019050818103600083015261542c816153f0565b9050919050565b60006040820190506154486000830185614159565b61545560208301846149b8565b9392505050565b7f446f6e6f72206e6f7420726567697374657265642e0000000000000000000000600082015250565b6000615492601583614b19565b915061549d8261545c565b602082019050919050565b600060208201905081810360008301526154c181615485565b905091905056fea2646970667358221220e4944190d396db0d60af344aa90a90921bb02b6e504c94a48bad6ae8bf26128a64736f6c63430008130033",
  "linkReferences": {},
  "deployedLinkReferences": {}
}