{
  "_format": "hh-sol-artifact-1",
  "contractName": "SpermBank",
  "sourceName": "contracts/SpermBank.sol",
  "abi": [
    {
      "inputs": [],
      "stateMutability": "nonpayable",
      "type": "constructor"
    },
    {
      "anonymous": false,
      "inputs": [
        {
          "indexed": false,
          "internalType": "uint256",
          "name": "donationId",
          "type": "uint256"
        },
        {
          "indexed": false,
          "internalType": "address",
          "name": "donorAddress",
          "type": "address"
        }
      ],
      "name": "DonationReceived",
      "type": "event"
    },
    {
      "anonymous": false,
      "inputs": [
        {
          "indexed": false,
          "internalType": "address",
          "name": "donorAddress",
          "type": "address"
        }
      ],
      "name": "DonorRegistered",
      "type": "event"
    },
    {
      "anonymous": false,
      "inputs": [
        {
          "indexed": false,
          "internalType": "address",
          "name": "receiverAddress",
          "type": "address"
        },
        {
          "indexed": false,
          "internalType": "address",
          "name": "donorAddress",
          "type": "address"
        }
      ],
      "name": "SpermReceived",
      "type": "event"
    },
    {
      "inputs": [],
      "name": "admin",
      "outputs": [
        {
          "internalType": "address",
          "name": "",
          "type": "address"
        }
      ],
      "stateMutability": "view",
      "type": "function"
    },
    {
      "inputs": [],
      "name": "donateSperm",
      "outputs": [],
      "stateMutability": "nonpayable",
      "type": "function"
    },
    {
      "inputs": [
        {
          "internalType": "uint256",
          "name": "",
          "type": "uint256"
        }
      ],
      "name": "donations",
      "outputs": [
        {
          "internalType": "uint256",
          "name": "id",
          "type": "uint256"
        },
        {
          "internalType": "address",
          "name": "donorAddress",
          "type": "address"
        },
        {
          "internalType": "uint256",
          "name": "timestamp",
          "type": "uint256"
        }
      ],
      "stateMutability": "view",
      "type": "function"
    },
    {
      "inputs": [
        {
          "internalType": "uint256",
          "name": "",
          "type": "uint256"
        }
      ],
      "name": "donorAddresses",
      "outputs": [
        {
          "internalType": "address",
          "name": "",
          "type": "address"
        }
      ],
      "stateMutability": "view",
      "type": "function"
    },
    {
      "inputs": [
        {
          "internalType": "address",
          "name": "",
          "type": "address"
        }
      ],
      "name": "donors",
      "outputs": [
        {
          "internalType": "address",
          "name": "donorAddress",
          "type": "address"
        },
        {
          "components": [
            {
              "internalType": "string",
              "name": "bloodType",
              "type": "string"
            },
            {
              "internalType": "bool",
              "name": "hav",
              "type": "bool"
            },
            {
              "internalType": "bool",
              "name": "hbv",
              "type": "bool"
            },
            {
              "internalType": "bool",
              "name": "hcv",
              "type": "bool"
            },
            {
              "internalType": "bool",
              "name": "venerealDisease",
              "type": "bool"
            }
          ],
          "internalType": "struct SpermBank.BloodInfo",
          "name": "bloodInfo",
          "type": "tuple"
        },
        {
          "components": [
            {
              "internalType": "uint256",
              "name": "semenVolume",
              "type": "uint256"
            },
            {
              "internalType": "uint256",
              "name": "spermCount",
              "type": "uint256"
            },
            {
              "internalType": "string",
              "name": "spermMotility",
              "type": "string"
            },
            {
              "internalType": "string",
              "name": "spermShape",
              "type": "string"
            }
          ],
          "internalType": "struct SpermBank.SemenTestInfo",
          "name": "semenTestInfo",
          "type": "tuple"
        },
        {
          "components": [
            {
              "components": [
                {
                  "internalType": "bool",
                  "name": "mentalRetardation",
                  "type": "bool"
                },
                {
                  "internalType": "bool",
                  "name": "mentalIllness",
                  "type": "bool"
                },
                {
                  "internalType": "bool",
                  "name": "epilepsy",
                  "type": "bool"
                },
                {
                  "internalType": "string[]",
                  "name": "otherConditions",
                  "type": "string[]"
                }
              ],
              "internalType": "struct SpermBank.MedicalHistory",
              "name": "medicalHistory",
              "type": "tuple"
            },
            {
              "components": [
                {
                  "internalType": "bool",
                  "name": "drugUse",
                  "type": "bool"
                },
                {
                  "internalType": "string[]",
                  "name": "otherConditions",
                  "type": "string[]"
                }
              ],
              "internalType": "struct SpermBank.PastHistory",
              "name": "pastHistory",
              "type": "tuple"
            },
            {
              "internalType": "string[]",
              "name": "geneticDisorders",
              "type": "string[]"
            },
            {
              "components": [
                {
                  "internalType": "string",
                  "name": "relation",
                  "type": "string"
                },
                {
                  "internalType": "string",
                  "name": "condition",
                  "type": "string"
                }
              ],
              "internalType": "struct SpermBank.FamilyHistory[]",
              "name": "familyHistory",
              "type": "tuple[]"
            }
          ],
          "internalType": "struct SpermBank.InterviewInfo",
          "name": "interviewInfo",
          "type": "tuple"
        },
        {
          "components": [
            {
              "internalType": "uint256",
              "name": "height",
              "type": "uint256"
            },
            {
              "internalType": "uint256",
              "name": "weight",
              "type": "uint256"
            },
            {
              "internalType": "string",
              "name": "bodyType",
              "type": "string"
            },
            {
              "internalType": "string",
              "name": "ethnicity",
              "type": "string"
            },
            {
              "internalType": "string",
              "name": "personality",
              "type": "string"
            },
            {
              "internalType": "string",
              "name": "education",
              "type": "string"
            },
            {
              "internalType": "string",
              "name": "religion",
              "type": "string"
            }
          ],
          "internalType": "struct SpermBank.PhysicalInfo",
          "name": "physicalInfo",
          "type": "tuple"
        },
        {
          "internalType": "bool",
          "name": "isRegistered",
          "type": "bool"
        }
      ],
      "stateMutability": "view",
      "type": "function"
    },
    {
      "inputs": [],
      "name": "getAllDonors",
      "outputs": [
        {
          "components": [
            {
              "internalType": "address",
              "name": "donorAddress",
              "type": "address"
            },
            {
              "components": [
                {
                  "internalType": "string",
                  "name": "bloodType",
                  "type": "string"
                },
                {
                  "internalType": "bool",
                  "name": "hav",
                  "type": "bool"
                },
                {
                  "internalType": "bool",
                  "name": "hbv",
                  "type": "bool"
                },
                {
                  "internalType": "bool",
                  "name": "hcv",
                  "type": "bool"
                },
                {
                  "internalType": "bool",
                  "name": "venerealDisease",
                  "type": "bool"
                }
              ],
              "internalType": "struct SpermBank.BloodInfo",
              "name": "bloodInfo",
              "type": "tuple"
            },
            {
              "components": [
                {
                  "internalType": "uint256",
                  "name": "semenVolume",
                  "type": "uint256"
                },
                {
                  "internalType": "uint256",
                  "name": "spermCount",
                  "type": "uint256"
                },
                {
                  "internalType": "string",
                  "name": "spermMotility",
                  "type": "string"
                },
                {
                  "internalType": "string",
                  "name": "spermShape",
                  "type": "string"
                }
              ],
              "internalType": "struct SpermBank.SemenTestInfo",
              "name": "semenTestInfo",
              "type": "tuple"
            },
            {
              "components": [
                {
                  "components": [
                    {
                      "internalType": "bool",
                      "name": "mentalRetardation",
                      "type": "bool"
                    },
                    {
                      "internalType": "bool",
                      "name": "mentalIllness",
                      "type": "bool"
                    },
                    {
                      "internalType": "bool",
                      "name": "epilepsy",
                      "type": "bool"
                    },
                    {
                      "internalType": "string[]",
                      "name": "otherConditions",
                      "type": "string[]"
                    }
                  ],
                  "internalType": "struct SpermBank.MedicalHistory",
                  "name": "medicalHistory",
                  "type": "tuple"
                },
                {
                  "components": [
                    {
                      "internalType": "bool",
                      "name": "drugUse",
                      "type": "bool"
                    },
                    {
                      "internalType": "string[]",
                      "name": "otherConditions",
                      "type": "string[]"
                    }
                  ],
                  "internalType": "struct SpermBank.PastHistory",
                  "name": "pastHistory",
                  "type": "tuple"
                },
                {
                  "internalType": "string[]",
                  "name": "geneticDisorders",
                  "type": "string[]"
                },
                {
                  "components": [
                    {
                      "internalType": "string",
                      "name": "relation",
                      "type": "string"
                    },
                    {
                      "internalType": "string",
                      "name": "condition",
                      "type": "string"
                    }
                  ],
                  "internalType": "struct SpermBank.FamilyHistory[]",
                  "name": "familyHistory",
                  "type": "tuple[]"
                }
              ],
              "internalType": "struct SpermBank.InterviewInfo",
              "name": "interviewInfo",
              "type": "tuple"
            },
            {
              "components": [
                {
                  "internalType": "uint256",
                  "name": "height",
                  "type": "uint256"
                },
                {
                  "internalType": "uint256",
                  "name": "weight",
                  "type": "uint256"
                },
                {
                  "internalType": "string",
                  "name": "bodyType",
                  "type": "string"
                },
                {
                  "internalType": "string",
                  "name": "ethnicity",
                  "type": "string"
                },
                {
                  "internalType": "string",
                  "name": "personality",
                  "type": "string"
                },
                {
                  "internalType": "string",
                  "name": "education",
                  "type": "string"
                },
                {
                  "internalType": "string",
                  "name": "religion",
                  "type": "string"
                }
              ],
              "internalType": "struct SpermBank.PhysicalInfo",
              "name": "physicalInfo",
              "type": "tuple"
            },
            {
              "internalType": "bool",
              "name": "isRegistered",
              "type": "bool"
            }
          ],
          "internalType": "struct SpermBank.Donor[]",
          "name": "",
          "type": "tuple[]"
        }
      ],
      "stateMutability": "view",
      "type": "function"
    },
    {
      "inputs": [],
      "name": "getDonationHistory",
      "outputs": [
        {
          "components": [
            {
              "internalType": "uint256",
              "name": "id",
              "type": "uint256"
            },
            {
              "internalType": "address",
              "name": "donorAddress",
              "type": "address"
            },
            {
              "internalType": "uint256",
              "name": "timestamp",
              "type": "uint256"
            }
          ],
          "internalType": "struct SpermBank.Donation[]",
          "name": "",
          "type": "tuple[]"
        }
      ],
      "stateMutability": "view",
      "type": "function"
    },
    {
      "inputs": [
        {
          "internalType": "address",
          "name": "_donorAddress",
          "type": "address"
        }
      ],
      "name": "getDonorInfo",
      "outputs": [
        {
          "components": [
            {
              "internalType": "address",
              "name": "donorAddress",
              "type": "address"
            },
            {
              "components": [
                {
                  "internalType": "string",
                  "name": "bloodType",
                  "type": "string"
                },
                {
                  "internalType": "bool",
                  "name": "hav",
                  "type": "bool"
                },
                {
                  "internalType": "bool",
                  "name": "hbv",
                  "type": "bool"
                },
                {
                  "internalType": "bool",
                  "name": "hcv",
                  "type": "bool"
                },
                {
                  "internalType": "bool",
                  "name": "venerealDisease",
                  "type": "bool"
                }
              ],
              "internalType": "struct SpermBank.BloodInfo",
              "name": "bloodInfo",
              "type": "tuple"
            },
            {
              "components": [
                {
                  "internalType": "uint256",
                  "name": "semenVolume",
                  "type": "uint256"
                },
                {
                  "internalType": "uint256",
                  "name": "spermCount",
                  "type": "uint256"
                },
                {
                  "internalType": "string",
                  "name": "spermMotility",
                  "type": "string"
                },
                {
                  "internalType": "string",
                  "name": "spermShape",
                  "type": "string"
                }
              ],
              "internalType": "struct SpermBank.SemenTestInfo",
              "name": "semenTestInfo",
              "type": "tuple"
            },
            {
              "components": [
                {
                  "components": [
                    {
                      "internalType": "bool",
                      "name": "mentalRetardation",
                      "type": "bool"
                    },
                    {
                      "internalType": "bool",
                      "name": "mentalIllness",
                      "type": "bool"
                    },
                    {
                      "internalType": "bool",
                      "name": "epilepsy",
                      "type": "bool"
                    },
                    {
                      "internalType": "string[]",
                      "name": "otherConditions",
                      "type": "string[]"
                    }
                  ],
                  "internalType": "struct SpermBank.MedicalHistory",
                  "name": "medicalHistory",
                  "type": "tuple"
                },
                {
                  "components": [
                    {
                      "internalType": "bool",
                      "name": "drugUse",
                      "type": "bool"
                    },
                    {
                      "internalType": "string[]",
                      "name": "otherConditions",
                      "type": "string[]"
                    }
                  ],
                  "internalType": "struct SpermBank.PastHistory",
                  "name": "pastHistory",
                  "type": "tuple"
                },
                {
                  "internalType": "string[]",
                  "name": "geneticDisorders",
                  "type": "string[]"
                },
                {
                  "components": [
                    {
                      "internalType": "string",
                      "name": "relation",
                      "type": "string"
                    },
                    {
                      "internalType": "string",
                      "name": "condition",
                      "type": "string"
                    }
                  ],
                  "internalType": "struct SpermBank.FamilyHistory[]",
                  "name": "familyHistory",
                  "type": "tuple[]"
                }
              ],
              "internalType": "struct SpermBank.InterviewInfo",
              "name": "interviewInfo",
              "type": "tuple"
            },
            {
              "components": [
                {
                  "internalType": "uint256",
                  "name": "height",
                  "type": "uint256"
                },
                {
                  "internalType": "uint256",
                  "name": "weight",
                  "type": "uint256"
                },
                {
                  "internalType": "string",
                  "name": "bodyType",
                  "type": "string"
                },
                {
                  "internalType": "string",
                  "name": "ethnicity",
                  "type": "string"
                },
                {
                  "internalType": "string",
                  "name": "personality",
                  "type": "string"
                },
                {
                  "internalType": "string",
                  "name": "education",
                  "type": "string"
                },
                {
                  "internalType": "string",
                  "name": "religion",
                  "type": "string"
                }
              ],
              "internalType": "struct SpermBank.PhysicalInfo",
              "name": "physicalInfo",
              "type": "tuple"
            },
            {
              "internalType": "bool",
              "name": "isRegistered",
              "type": "bool"
            }
          ],
          "internalType": "struct SpermBank.Donor",
          "name": "",
          "type": "tuple"
        }
      ],
      "stateMutability": "view",
      "type": "function"
    },
    {
      "inputs": [
        {
          "internalType": "address",
          "name": "_donorAddress",
          "type": "address"
        }
      ],
      "name": "getReceiverByDonorAddress",
      "outputs": [
        {
          "components": [
            {
              "internalType": "address",
              "name": "receiverAddress",
              "type": "address"
            },
            {
              "internalType": "address",
              "name": "donorAddress",
              "type": "address"
            },
            {
              "internalType": "uint256",
              "name": "timestamp",
              "type": "uint256"
            }
          ],
          "internalType": "struct SpermBank.Receiver[]",
          "name": "",
          "type": "tuple[]"
        }
      ],
      "stateMutability": "view",
      "type": "function"
    },
    {
      "inputs": [],
      "name": "getReceiverHistory",
      "outputs": [
        {
          "components": [
            {
              "internalType": "address",
              "name": "receiverAddress",
              "type": "address"
            },
            {
              "internalType": "address",
              "name": "donorAddress",
              "type": "address"
            },
            {
              "internalType": "uint256",
              "name": "timestamp",
              "type": "uint256"
            }
          ],
          "internalType": "struct SpermBank.Receiver[]",
          "name": "",
          "type": "tuple[]"
        }
      ],
      "stateMutability": "view",
      "type": "function"
    },
    {
      "inputs": [
        {
          "internalType": "uint256",
          "name": "",
          "type": "uint256"
        }
      ],
      "name": "receivers",
      "outputs": [
        {
          "internalType": "address",
          "name": "receiverAddress",
          "type": "address"
        },
        {
          "internalType": "address",
          "name": "donorAddress",
          "type": "address"
        },
        {
          "internalType": "uint256",
          "name": "timestamp",
          "type": "uint256"
        }
      ],
      "stateMutability": "view",
      "type": "function"
    },
    {
      "inputs": [
        {
          "components": [
            {
              "internalType": "string",
              "name": "bloodType",
              "type": "string"
            },
            {
              "internalType": "bool",
              "name": "hav",
              "type": "bool"
            },
            {
              "internalType": "bool",
              "name": "hbv",
              "type": "bool"
            },
            {
              "internalType": "bool",
              "name": "hcv",
              "type": "bool"
            },
            {
              "internalType": "bool",
              "name": "venerealDisease",
              "type": "bool"
            }
          ],
          "internalType": "struct SpermBank.BloodInfo",
          "name": "_bloodInfo",
          "type": "tuple"
        },
        {
          "components": [
            {
              "internalType": "uint256",
              "name": "semenVolume",
              "type": "uint256"
            },
            {
              "internalType": "uint256",
              "name": "spermCount",
              "type": "uint256"
            },
            {
              "internalType": "string",
              "name": "spermMotility",
              "type": "string"
            },
            {
              "internalType": "string",
              "name": "spermShape",
              "type": "string"
            }
          ],
          "internalType": "struct SpermBank.SemenTestInfo",
          "name": "_semenTestInfo",
          "type": "tuple"
        },
        {
          "components": [
            {
              "components": [
                {
                  "internalType": "bool",
                  "name": "mentalRetardation",
                  "type": "bool"
                },
                {
                  "internalType": "bool",
                  "name": "mentalIllness",
                  "type": "bool"
                },
                {
                  "internalType": "bool",
                  "name": "epilepsy",
                  "type": "bool"
                },
                {
                  "internalType": "string[]",
                  "name": "otherConditions",
                  "type": "string[]"
                }
              ],
              "internalType": "struct SpermBank.MedicalHistory",
              "name": "medicalHistory",
              "type": "tuple"
            },
            {
              "components": [
                {
                  "internalType": "bool",
                  "name": "drugUse",
                  "type": "bool"
                },
                {
                  "internalType": "string[]",
                  "name": "otherConditions",
                  "type": "string[]"
                }
              ],
              "internalType": "struct SpermBank.PastHistory",
              "name": "pastHistory",
              "type": "tuple"
            },
            {
              "internalType": "string[]",
              "name": "geneticDisorders",
              "type": "string[]"
            },
            {
              "components": [
                {
                  "internalType": "string",
                  "name": "relation",
                  "type": "string"
                },
                {
                  "internalType": "string",
                  "name": "condition",
                  "type": "string"
                }
              ],
              "internalType": "struct SpermBank.FamilyHistory[]",
              "name": "familyHistory",
              "type": "tuple[]"
            }
          ],
          "internalType": "struct SpermBank.InterviewInfo",
          "name": "_interviewInfo",
          "type": "tuple"
        },
        {
          "components": [
            {
              "internalType": "uint256",
              "name": "height",
              "type": "uint256"
            },
            {
              "internalType": "uint256",
              "name": "weight",
              "type": "uint256"
            },
            {
              "internalType": "string",
              "name": "bodyType",
              "type": "string"
            },
            {
              "internalType": "string",
              "name": "ethnicity",
              "type": "string"
            },
            {
              "internalType": "string",
              "name": "personality",
              "type": "string"
            },
            {
              "internalType": "string",
              "name": "education",
              "type": "string"
            },
            {
              "internalType": "string",
              "name": "religion",
              "type": "string"
            }
          ],
          "internalType": "struct SpermBank.PhysicalInfo",
          "name": "_physicalInfo",
          "type": "tuple"
        }
      ],
      "name": "registerDonor",
      "outputs": [],
      "stateMutability": "nonpayable",
      "type": "function"
    },
    {
      "inputs": [
        {
          "internalType": "address",
          "name": "_receiver",
          "type": "address"
        },
        {
          "internalType": "address",
          "name": "_donorAddress",
          "type": "address"
        }
      ],
      "name": "spermReceive",
      "outputs": [],
      "stateMutability": "nonpayable",
      "type": "function"
    }
  ],
  "bytecode": "0x608060405234801561001057600080fd5b5033600460006101000a81548173ffffffffffffffffffffffffffffffffffffffff021916908373ffffffffffffffffffffffffffffffffffffffff160217905550615395806100616000396000f3fe608060405234801561001057600080fd5b50600436106100ce5760003560e01c806398e36b041161008c578063c46a60a511610066578063c46a60a514610201578063ca0cdea814610231578063f851a44014610266578063f8626af814610284576100ce565b806398e36b0414610193578063998c7684146101b1578063bfd772fc146101cf576100ce565b8062029691146100d35780630527ba8f146101035780632b2aee5d1461012157806346ee2eda1461015157806347381dc11461015b5780636938f43714610177575b600080fd5b6100ed60048036038101906100e891906135fd565b6102b6565b6040516100fa9190613743565b60405180910390f35b61010b610578565b6040516101189190613856565b60405180910390f35b61013b600480360381019061013691906138a4565b610641565b60405161014891906138e0565b60405180910390f35b610159610680565b005b61017560048036038101906101709190614152565b61080d565b005b610191600480360381019061018c9190614229565b610ce8565b005b61019b610f9f565b6040516101a891906148cf565b60405180910390f35b6101b9611b55565b6040516101c69190613743565b60405180910390f35b6101e960048036038101906101e491906138a4565b611c6a565b6040516101f893929190614900565b60405180910390f35b61021b600480360381019061021691906135fd565b611ce4565b60405161022891906149d5565b60405180910390f35b61024b600480360381019061024691906135fd565b61280d565b60405161025d96959493929190614c16565b60405180910390f35b61026e613264565b60405161027b91906138e0565b60405180910390f35b61029e600480360381019061029991906138a4565b61328a565b6040516102ad93929190614c93565b60405180910390f35b6060600080600090505b600380549050811015610367578373ffffffffffffffffffffffffffffffffffffffff16600382815481106102f8576102f7614cca565b5b906000526020600020906003020160010160009054906101000a900473ffffffffffffffffffffffffffffffffffffffff1673ffffffffffffffffffffffffffffffffffffffff160361035457818061035090614d28565b9250505b808061035f90614d28565b9150506102c0565b5060008167ffffffffffffffff81111561038457610383613911565b5b6040519080825280602002602001820160405280156103bd57816020015b6103aa6132e4565b8152602001906001900390816103a25790505b5090506000805b60038054905081101561056c578573ffffffffffffffffffffffffffffffffffffffff16600382815481106103fc576103fb614cca565b5b906000526020600020906003020160010160009054906101000a900473ffffffffffffffffffffffffffffffffffffffff1673ffffffffffffffffffffffffffffffffffffffff1603610559576003818154811061045d5761045c614cca565b5b90600052602060002090600302016040518060600160405290816000820160009054906101000a900473ffffffffffffffffffffffffffffffffffffffff1673ffffffffffffffffffffffffffffffffffffffff1673ffffffffffffffffffffffffffffffffffffffff1681526020016001820160009054906101000a900473ffffffffffffffffffffffffffffffffffffffff1673ffffffffffffffffffffffffffffffffffffffff1673ffffffffffffffffffffffffffffffffffffffff16815260200160028201548152505083838151811061053f5761053e614cca565b5b6020026020010181905250818061055590614d28565b9250505b808061056490614d28565b9150506103c4565b50819350505050919050565b60606002805480602002602001604051908101604052809291908181526020016000905b828210156106385783829060005260206000209060030201604051806060016040529081600082015481526020016001820160009054906101000a900473ffffffffffffffffffffffffffffffffffffffff1673ffffffffffffffffffffffffffffffffffffffff1673ffffffffffffffffffffffffffffffffffffffff1681526020016002820154815250508152602001906001019061059c565b50505050905090565b6001818154811061065157600080fd5b906000526020600020016000915054906101000a900473ffffffffffffffffffffffffffffffffffffffff1681565b6000803373ffffffffffffffffffffffffffffffffffffffff1673ffffffffffffffffffffffffffffffffffffffff16815260200190815260200160002060140160009054906101000a900460ff1661070e576040517f08c379a000000000000000000000000000000000000000000000000000000000815260040161070590614dcd565b60405180910390fd5b60006002805490509050600260405180606001604052808381526020013373ffffffffffffffffffffffffffffffffffffffff1681526020014281525090806001815401808255809150506001900390600052602060002090600302016000909190919091506000820151816000015560208201518160010160006101000a81548173ffffffffffffffffffffffffffffffffffffffff021916908373ffffffffffffffffffffffffffffffffffffffff1602179055506040820151816002015550507f5c76d8902da3bf211ba4d69670a8d12c5f9a7b66b18b4348c392c4d2fe94a61e8133604051610802929190614ded565b60405180910390a150565b6000803373ffffffffffffffffffffffffffffffffffffffff1673ffffffffffffffffffffffffffffffffffffffff16815260200190815260200160002060140160009054906101000a900460ff161561089c576040517f08c379a000000000000000000000000000000000000000000000000000000000815260040161089390614e62565b60405180910390fd5b60008060003373ffffffffffffffffffffffffffffffffffffffff1673ffffffffffffffffffffffffffffffffffffffff1681526020019081526020016000209050338160000160006101000a81548173ffffffffffffffffffffffffffffffffffffffff021916908373ffffffffffffffffffffffffffffffffffffffff1602179055508481600101600082015181600001908161093b919061508e565b5060208201518160010160006101000a81548160ff02191690831515021790555060408201518160010160016101000a81548160ff02191690831515021790555060608201518160010160026101000a81548160ff02191690831515021790555060808201518160010160036101000a81548160ff0219169083151502179055509050508381600301600082015181600001556020820151816001015560408201518160020190816109ed919061508e565b506060820151816003019081610a03919061508e565b509050508181600d0160008201518160000155602082015181600101556040820151816002019081610a35919061508e565b506060820151816003019081610a4b919061508e565b506080820151816004019081610a61919061508e565b5060a0820151816005019081610a77919061508e565b5060c0820151816006019081610a8d919061508e565b5090505060005b836060015151811015610b31578160070160050184606001518281518110610abf57610abe614cca565b5b602002602001015190806001815401808255809150506001900390600052602060002090600202016000909190919091506000820151816000019081610b05919061508e565b506020820151816001019081610b1b919061508e565b5050508080610b2990614d28565b915050610a94565b5082600001518160070160000160008201518160000160006101000a81548160ff02191690831515021790555060208201518160000160016101000a81548160ff02191690831515021790555060408201518160000160026101000a81548160ff0219169083151502179055506060820151816001019080519060200190610bba929190613331565b5090505082602001518160070160020160008201518160000160006101000a81548160ff0219169083151502179055506020820151816001019080519060200190610c06929190613331565b509050508260400151816007016004019080519060200190610c29929190613331565b5060018160140160006101000a81548160ff0219169083151502179055506001339080600181540180825580915050600190039060005260206000200160009091909190916101000a81548173ffffffffffffffffffffffffffffffffffffffff021916908373ffffffffffffffffffffffffffffffffffffffff1602179055507fe07c5c81f3582b5a3dd36cadd627347f87083a40463dcc9eaf0d7a819c55dc1433604051610cd991906138e0565b60405180910390a15050505050565b600460009054906101000a900473ffffffffffffffffffffffffffffffffffffffff1673ffffffffffffffffffffffffffffffffffffffff163373ffffffffffffffffffffffffffffffffffffffff1614610d78576040517f08c379a0000000000000000000000000000000000000000000000000000000008152600401610d6f906151d2565b60405180910390fd5b600073ffffffffffffffffffffffffffffffffffffffff168173ffffffffffffffffffffffffffffffffffffffff1603610de7576040517f08c379a0000000000000000000000000000000000000000000000000000000008152600401610dde9061523e565b60405180910390fd5b600073ffffffffffffffffffffffffffffffffffffffff168273ffffffffffffffffffffffffffffffffffffffff1603610e56576040517f08c379a0000000000000000000000000000000000000000000000000000000008152600401610e4d906152aa565b60405180910390fd5b600360405180606001604052808473ffffffffffffffffffffffffffffffffffffffff1681526020018373ffffffffffffffffffffffffffffffffffffffff16815260200142815250908060018154018082558091505060019003906000526020600020906003020160009091909190915060008201518160000160006101000a81548173ffffffffffffffffffffffffffffffffffffffff021916908373ffffffffffffffffffffffffffffffffffffffff16021790555060208201518160010160006101000a81548173ffffffffffffffffffffffffffffffffffffffff021916908373ffffffffffffffffffffffffffffffffffffffff1602179055506040820151816002015550507f0e67b387e6b714c8320dc025efba07a317608a5faed6bcfcfa69812f5fbfe9058282604051610f939291906152ca565b60405180910390a15050565b6060600060018054905067ffffffffffffffff811115610fc257610fc1613911565b5b604051908082528060200260200182016040528015610ffb57816020015b610fe861338a565b815260200190600190039081610fe05790505b50905060005b600180549050811015611b4d576000806001838154811061102557611024614cca565b5b9060005260206000200160009054906101000a900473ffffffffffffffffffffffffffffffffffffffff1673ffffffffffffffffffffffffffffffffffffffff1673ffffffffffffffffffffffffffffffffffffffff1681526020019081526020016000206040518060c00160405290816000820160009054906101000a900473ffffffffffffffffffffffffffffffffffffffff1673ffffffffffffffffffffffffffffffffffffffff1673ffffffffffffffffffffffffffffffffffffffff168152602001600182016040518060a001604052908160008201805461110b90614eb1565b80601f016020809104026020016040519081016040528092919081815260200182805461113790614eb1565b80156111845780601f1061115957610100808354040283529160200191611184565b820191906000526020600020905b81548152906001019060200180831161116757829003601f168201915b505050505081526020016001820160009054906101000a900460ff161515151581526020016001820160019054906101000a900460ff161515151581526020016001820160029054906101000a900460ff161515151581526020016001820160039054906101000a900460ff161515151581525050815260200160038201604051806080016040529081600082015481526020016001820154815260200160028201805461123190614eb1565b80601f016020809104026020016040519081016040528092919081815260200182805461125d90614eb1565b80156112aa5780601f1061127f576101008083540402835291602001916112aa565b820191906000526020600020905b81548152906001019060200180831161128d57829003601f168201915b505050505081526020016003820180546112c390614eb1565b80601f01602080910402602001604051908101604052809291908181526020018280546112ef90614eb1565b801561133c5780601f106113115761010080835404028352916020019161133c565b820191906000526020600020905b81548152906001019060200180831161131f57829003601f168201915b505050505081525050815260200160078201604051806080016040529081600082016040518060800160405290816000820160009054906101000a900460ff161515151581526020016000820160019054906101000a900460ff161515151581526020016000820160029054906101000a900460ff1615151515815260200160018201805480602002602001604051908101604052809291908181526020016000905b8282101561148b5783829060005260206000200180546113fe90614eb1565b80601f016020809104026020016040519081016040528092919081815260200182805461142a90614eb1565b80156114775780601f1061144c57610100808354040283529160200191611477565b820191906000526020600020905b81548152906001019060200180831161145a57829003601f168201915b5050505050815260200190600101906113df565b50505050815250508152602001600282016040518060400160405290816000820160009054906101000a900460ff1615151515815260200160018201805480602002602001604051908101604052809291908181526020016000905b8282101561159357838290600052602060002001805461150690614eb1565b80601f016020809104026020016040519081016040528092919081815260200182805461153290614eb1565b801561157f5780601f106115545761010080835404028352916020019161157f565b820191906000526020600020905b81548152906001019060200180831161156257829003601f168201915b5050505050815260200190600101906114e7565b5050505081525050815260200160048201805480602002602001604051908101604052809291908181526020016000905b828210156116705783829060005260206000200180546115e390614eb1565b80601f016020809104026020016040519081016040528092919081815260200182805461160f90614eb1565b801561165c5780601f106116315761010080835404028352916020019161165c565b820191906000526020600020905b81548152906001019060200180831161163f57829003601f168201915b5050505050815260200190600101906115c4565b50505050815260200160058201805480602002602001604051908101604052809291908181526020016000905b828210156117f357838290600052602060002090600202016040518060400160405290816000820180546116d090614eb1565b80601f01602080910402602001604051908101604052809291908181526020018280546116fc90614eb1565b80156117495780601f1061171e57610100808354040283529160200191611749565b820191906000526020600020905b81548152906001019060200180831161172c57829003601f168201915b5050505050815260200160018201805461176290614eb1565b80601f016020809104026020016040519081016040528092919081815260200182805461178e90614eb1565b80156117db5780601f106117b0576101008083540402835291602001916117db565b820191906000526020600020905b8154815290600101906020018083116117be57829003601f168201915b5050505050815250508152602001906001019061169d565b50505050815250508152602001600d82016040518060e0016040529081600082015481526020016001820154815260200160028201805461183390614eb1565b80601f016020809104026020016040519081016040528092919081815260200182805461185f90614eb1565b80156118ac5780601f10611881576101008083540402835291602001916118ac565b820191906000526020600020905b81548152906001019060200180831161188f57829003601f168201915b505050505081526020016003820180546118c590614eb1565b80601f01602080910402602001604051908101604052809291908181526020018280546118f190614eb1565b801561193e5780601f106119135761010080835404028352916020019161193e565b820191906000526020600020905b81548152906001019060200180831161192157829003601f168201915b5050505050815260200160048201805461195790614eb1565b80601f016020809104026020016040519081016040528092919081815260200182805461198390614eb1565b80156119d05780601f106119a5576101008083540402835291602001916119d0565b820191906000526020600020905b8154815290600101906020018083116119b357829003601f168201915b505050505081526020016005820180546119e990614eb1565b80601f0160208091040260200160405190810160405280929190818152602001828054611a1590614eb1565b8015611a625780601f10611a3757610100808354040283529160200191611a62565b820191906000526020600020905b815481529060010190602001808311611a4557829003601f168201915b50505050508152602001600682018054611a7b90614eb1565b80601f0160208091040260200160405190810160405280929190818152602001828054611aa790614eb1565b8015611af45780601f10611ac957610100808354040283529160200191611af4565b820191906000526020600020905b815481529060010190602001808311611ad757829003601f168201915b50505050508152505081526020016014820160009054906101000a900460ff161515151581525050828281518110611b2f57611b2e614cca565b5b60200260200101819052508080611b4590614d28565b915050611001565b508091505090565b60606003805480602002602001604051908101604052809291908181526020016000905b82821015611c6157838290600052602060002090600302016040518060600160405290816000820160009054906101000a900473ffffffffffffffffffffffffffffffffffffffff1673ffffffffffffffffffffffffffffffffffffffff1673ffffffffffffffffffffffffffffffffffffffff1681526020016001820160009054906101000a900473ffffffffffffffffffffffffffffffffffffffff1673ffffffffffffffffffffffffffffffffffffffff1673ffffffffffffffffffffffffffffffffffffffff16815260200160028201548152505081526020019060010190611b79565b50505050905090565b60038181548110611c7a57600080fd5b90600052602060002090600302016000915090508060000160009054906101000a900473ffffffffffffffffffffffffffffffffffffffff16908060010160009054906101000a900473ffffffffffffffffffffffffffffffffffffffff16908060020154905083565b611cec61338a565b60008060008473ffffffffffffffffffffffffffffffffffffffff1673ffffffffffffffffffffffffffffffffffffffff1681526020019081526020016000206040518060c00160405290816000820160009054906101000a900473ffffffffffffffffffffffffffffffffffffffff1673ffffffffffffffffffffffffffffffffffffffff1673ffffffffffffffffffffffffffffffffffffffff168152602001600182016040518060a0016040529081600082018054611dad90614eb1565b80601f0160208091040260200160405190810160405280929190818152602001828054611dd990614eb1565b8015611e265780601f10611dfb57610100808354040283529160200191611e26565b820191906000526020600020905b815481529060010190602001808311611e0957829003601f168201915b505050505081526020016001820160009054906101000a900460ff161515151581526020016001820160019054906101000a900460ff161515151581526020016001820160029054906101000a900460ff161515151581526020016001820160039054906101000a900460ff1615151515815250508152602001600382016040518060800160405290816000820154815260200160018201548152602001600282018054611ed390614eb1565b80601f0160208091040260200160405190810160405280929190818152602001828054611eff90614eb1565b8015611f4c5780601f10611f2157610100808354040283529160200191611f4c565b820191906000526020600020905b815481529060010190602001808311611f2f57829003601f168201915b50505050508152602001600382018054611f6590614eb1565b80601f0160208091040260200160405190810160405280929190818152602001828054611f9190614eb1565b8015611fde5780601f10611fb357610100808354040283529160200191611fde565b820191906000526020600020905b815481529060010190602001808311611fc157829003601f168201915b505050505081525050815260200160078201604051806080016040529081600082016040518060800160405290816000820160009054906101000a900460ff161515151581526020016000820160019054906101000a900460ff161515151581526020016000820160029054906101000a900460ff1615151515815260200160018201805480602002602001604051908101604052809291908181526020016000905b8282101561212d5783829060005260206000200180546120a090614eb1565b80601f01602080910402602001604051908101604052809291908181526020018280546120cc90614eb1565b80156121195780601f106120ee57610100808354040283529160200191612119565b820191906000526020600020905b8154815290600101906020018083116120fc57829003601f168201915b505050505081526020019060010190612081565b50505050815250508152602001600282016040518060400160405290816000820160009054906101000a900460ff1615151515815260200160018201805480602002602001604051908101604052809291908181526020016000905b828210156122355783829060005260206000200180546121a890614eb1565b80601f01602080910402602001604051908101604052809291908181526020018280546121d490614eb1565b80156122215780601f106121f657610100808354040283529160200191612221565b820191906000526020600020905b81548152906001019060200180831161220457829003601f168201915b505050505081526020019060010190612189565b5050505081525050815260200160048201805480602002602001604051908101604052809291908181526020016000905b8282101561231257838290600052602060002001805461228590614eb1565b80601f01602080910402602001604051908101604052809291908181526020018280546122b190614eb1565b80156122fe5780601f106122d3576101008083540402835291602001916122fe565b820191906000526020600020905b8154815290600101906020018083116122e157829003601f168201915b505050505081526020019060010190612266565b50505050815260200160058201805480602002602001604051908101604052809291908181526020016000905b82821015612495578382906000526020600020906002020160405180604001604052908160008201805461237290614eb1565b80601f016020809104026020016040519081016040528092919081815260200182805461239e90614eb1565b80156123eb5780601f106123c0576101008083540402835291602001916123eb565b820191906000526020600020905b8154815290600101906020018083116123ce57829003601f168201915b5050505050815260200160018201805461240490614eb1565b80601f016020809104026020016040519081016040528092919081815260200182805461243090614eb1565b801561247d5780601f106124525761010080835404028352916020019161247d565b820191906000526020600020905b81548152906001019060200180831161246057829003601f168201915b5050505050815250508152602001906001019061233f565b50505050815250508152602001600d82016040518060e001604052908160008201548152602001600182015481526020016002820180546124d590614eb1565b80601f016020809104026020016040519081016040528092919081815260200182805461250190614eb1565b801561254e5780601f106125235761010080835404028352916020019161254e565b820191906000526020600020905b81548152906001019060200180831161253157829003601f168201915b5050505050815260200160038201805461256790614eb1565b80601f016020809104026020016040519081016040528092919081815260200182805461259390614eb1565b80156125e05780601f106125b5576101008083540402835291602001916125e0565b820191906000526020600020905b8154815290600101906020018083116125c357829003601f168201915b505050505081526020016004820180546125f990614eb1565b80601f016020809104026020016040519081016040528092919081815260200182805461262590614eb1565b80156126725780601f1061264757610100808354040283529160200191612672565b820191906000526020600020905b81548152906001019060200180831161265557829003601f168201915b5050505050815260200160058201805461268b90614eb1565b80601f01602080910402602001604051908101604052809291908181526020018280546126b790614eb1565b80156127045780601f106126d957610100808354040283529160200191612704565b820191906000526020600020905b8154815290600101906020018083116126e757829003601f168201915b5050505050815260200160068201805461271d90614eb1565b80601f016020809104026020016040519081016040528092919081815260200182805461274990614eb1565b80156127965780601f1061276b57610100808354040283529160200191612796565b820191906000526020600020905b81548152906001019060200180831161277957829003601f168201915b50505050508152505081526020016014820160009054906101000a900460ff16151515158152505090508060a00151612804576040517f08c379a00000000000000000000000000000000000000000000000000000000081526004016127fb9061533f565b60405180910390fd5b80915050919050565b60006020528060005260406000206000915090508060000160009054906101000a900473ffffffffffffffffffffffffffffffffffffffff1690806001016040518060a001604052908160008201805461286690614eb1565b80601f016020809104026020016040519081016040528092919081815260200182805461289290614eb1565b80156128df5780601f106128b4576101008083540402835291602001916128df565b820191906000526020600020905b8154815290600101906020018083116128c257829003601f168201915b505050505081526020016001820160009054906101000a900460ff161515151581526020016001820160019054906101000a900460ff161515151581526020016001820160029054906101000a900460ff161515151581526020016001820160039054906101000a900460ff1615151515815250509080600301604051806080016040529081600082015481526020016001820154815260200160028201805461298890614eb1565b80601f01602080910402602001604051908101604052809291908181526020018280546129b490614eb1565b8015612a015780601f106129d657610100808354040283529160200191612a01565b820191906000526020600020905b8154815290600101906020018083116129e457829003601f168201915b50505050508152602001600382018054612a1a90614eb1565b80601f0160208091040260200160405190810160405280929190818152602001828054612a4690614eb1565b8015612a935780601f10612a6857610100808354040283529160200191612a93565b820191906000526020600020905b815481529060010190602001808311612a7657829003601f168201915b5050505050815250509080600701604051806080016040529081600082016040518060800160405290816000820160009054906101000a900460ff161515151581526020016000820160019054906101000a900460ff161515151581526020016000820160029054906101000a900460ff1615151515815260200160018201805480602002602001604051908101604052809291908181526020016000905b82821015612bde578382906000526020600020018054612b5190614eb1565b80601f0160208091040260200160405190810160405280929190818152602001828054612b7d90614eb1565b8015612bca5780601f10612b9f57610100808354040283529160200191612bca565b820191906000526020600020905b815481529060010190602001808311612bad57829003601f168201915b505050505081526020019060010190612b32565b50505050815250508152602001600282016040518060400160405290816000820160009054906101000a900460ff1615151515815260200160018201805480602002602001604051908101604052809291908181526020016000905b82821015612ce6578382906000526020600020018054612c5990614eb1565b80601f0160208091040260200160405190810160405280929190818152602001828054612c8590614eb1565b8015612cd25780601f10612ca757610100808354040283529160200191612cd2565b820191906000526020600020905b815481529060010190602001808311612cb557829003601f168201915b505050505081526020019060010190612c3a565b5050505081525050815260200160048201805480602002602001604051908101604052809291908181526020016000905b82821015612dc3578382906000526020600020018054612d3690614eb1565b80601f0160208091040260200160405190810160405280929190818152602001828054612d6290614eb1565b8015612daf5780601f10612d8457610100808354040283529160200191612daf565b820191906000526020600020905b815481529060010190602001808311612d9257829003601f168201915b505050505081526020019060010190612d17565b50505050815260200160058201805480602002602001604051908101604052809291908181526020016000905b82821015612f465783829060005260206000209060020201604051806040016040529081600082018054612e2390614eb1565b80601f0160208091040260200160405190810160405280929190818152602001828054612e4f90614eb1565b8015612e9c5780601f10612e7157610100808354040283529160200191612e9c565b820191906000526020600020905b815481529060010190602001808311612e7f57829003601f168201915b50505050508152602001600182018054612eb590614eb1565b80601f0160208091040260200160405190810160405280929190818152602001828054612ee190614eb1565b8015612f2e5780601f10612f0357610100808354040283529160200191612f2e565b820191906000526020600020905b815481529060010190602001808311612f1157829003601f168201915b50505050508152505081526020019060010190612df0565b50505050815250509080600d016040518060e00160405290816000820154815260200160018201548152602001600282018054612f8290614eb1565b80601f0160208091040260200160405190810160405280929190818152602001828054612fae90614eb1565b8015612ffb5780601f10612fd057610100808354040283529160200191612ffb565b820191906000526020600020905b815481529060010190602001808311612fde57829003601f168201915b5050505050815260200160038201805461301490614eb1565b80601f016020809104026020016040519081016040528092919081815260200182805461304090614eb1565b801561308d5780601f106130625761010080835404028352916020019161308d565b820191906000526020600020905b81548152906001019060200180831161307057829003601f168201915b505050505081526020016004820180546130a690614eb1565b80601f01602080910402602001604051908101604052809291908181526020018280546130d290614eb1565b801561311f5780601f106130f45761010080835404028352916020019161311f565b820191906000526020600020905b81548152906001019060200180831161310257829003601f168201915b5050505050815260200160058201805461313890614eb1565b80601f016020809104026020016040519081016040528092919081815260200182805461316490614eb1565b80156131b15780601f10613186576101008083540402835291602001916131b1565b820191906000526020600020905b81548152906001019060200180831161319457829003601f168201915b505050505081526020016006820180546131ca90614eb1565b80601f01602080910402602001604051908101604052809291908181526020018280546131f690614eb1565b80156132435780601f1061321857610100808354040283529160200191613243565b820191906000526020600020905b81548152906001019060200180831161322657829003601f168201915b505050505081525050908060140160009054906101000a900460ff16905086565b600460009054906101000a900473ffffffffffffffffffffffffffffffffffffffff1681565b6002818154811061329a57600080fd5b90600052602060002090600302016000915090508060000154908060010160009054906101000a900473ffffffffffffffffffffffffffffffffffffffff16908060020154905083565b6040518060600160405280600073ffffffffffffffffffffffffffffffffffffffff168152602001600073ffffffffffffffffffffffffffffffffffffffff168152602001600081525090565b828054828255906000526020600020908101928215613379579160200282015b82811115613378578251829081613368919061508e565b5091602001919060010190613351565b5b50905061338691906133f0565b5090565b6040518060c00160405280600073ffffffffffffffffffffffffffffffffffffffff1681526020016133ba613414565b81526020016133c761344b565b81526020016133d4613473565b81526020016133e16134a7565b81526020016000151581525090565b5b80821115613410576000818161340791906134e4565b506001016133f1565b5090565b6040518060a00160405280606081526020016000151581526020016000151581526020016000151581526020016000151581525090565b6040518060800160405280600081526020016000815260200160608152602001606081525090565b6040518060800160405280613486613524565b8152602001613493613552565b815260200160608152602001606081525090565b6040518060e00160405280600081526020016000815260200160608152602001606081526020016060815260200160608152602001606081525090565b5080546134f090614eb1565b6000825580601f106135025750613521565b601f016020900490600052602060002090810190613520919061356e565b5b50565b6040518060800160405280600015158152602001600015158152602001600015158152602001606081525090565b6040518060400160405280600015158152602001606081525090565b5b8082111561358757600081600090555060010161356f565b5090565b6000604051905090565b600080fd5b600080fd5b600073ffffffffffffffffffffffffffffffffffffffff82169050919050565b60006135ca8261359f565b9050919050565b6135da816135bf565b81146135e557600080fd5b50565b6000813590506135f7816135d1565b92915050565b60006020828403121561361357613612613595565b5b6000613621848285016135e8565b91505092915050565b600081519050919050565b600082825260208201905092915050565b6000819050602082019050919050565b61365f816135bf565b82525050565b6000819050919050565b61367881613665565b82525050565b6060820160008201516136946000850182613656565b5060208201516136a76020850182613656565b5060408201516136ba604085018261366f565b50505050565b60006136cc838361367e565b60608301905092915050565b6000602082019050919050565b60006136f08261362a565b6136fa8185613635565b935061370583613646565b8060005b8381101561373657815161371d88826136c0565b9750613728836136d8565b925050600181019050613709565b5085935050505092915050565b6000602082019050818103600083015261375d81846136e5565b905092915050565b600081519050919050565b600082825260208201905092915050565b6000819050602082019050919050565b6060820160008201516137a7600085018261366f565b5060208201516137ba6020850182613656565b5060408201516137cd604085018261366f565b50505050565b60006137df8383613791565b60608301905092915050565b6000602082019050919050565b600061380382613765565b61380d8185613770565b935061381883613781565b8060005b8381101561384957815161383088826137d3565b975061383b836137eb565b92505060018101905061381c565b5085935050505092915050565b6000602082019050818103600083015261387081846137f8565b905092915050565b61388181613665565b811461388c57600080fd5b50565b60008135905061389e81613878565b92915050565b6000602082840312156138ba576138b9613595565b5b60006138c88482850161388f565b91505092915050565b6138da816135bf565b82525050565b60006020820190506138f560008301846138d1565b92915050565b600080fd5b6000601f19601f8301169050919050565b7f4e487b7100000000000000000000000000000000000000000000000000000000600052604160045260246000fd5b61394982613900565b810181811067ffffffffffffffff8211171561396857613967613911565b5b80604052505050565b600061397b61358b565b90506139878282613940565b919050565b600080fd5b600080fd5b600080fd5b600067ffffffffffffffff8211156139b6576139b5613911565b5b6139bf82613900565b9050602081019050919050565b82818337600083830152505050565b60006139ee6139e98461399b565b613971565b905082815260208101848484011115613a0a57613a09613996565b5b613a158482856139cc565b509392505050565b600082601f830112613a3257613a31613991565b5b8135613a428482602086016139db565b91505092915050565b60008115159050919050565b613a6081613a4b565b8114613a6b57600080fd5b50565b600081359050613a7d81613a57565b92915050565b600060a08284031215613a9957613a986138fb565b5b613aa360a0613971565b9050600082013567ffffffffffffffff811115613ac357613ac261398c565b5b613acf84828501613a1d565b6000830152506020613ae384828501613a6e565b6020830152506040613af784828501613a6e565b6040830152506060613b0b84828501613a6e565b6060830152506080613b1f84828501613a6e565b60808301525092915050565b600060808284031215613b4157613b406138fb565b5b613b4b6080613971565b90506000613b5b8482850161388f565b6000830152506020613b6f8482850161388f565b602083015250604082013567ffffffffffffffff811115613b9357613b9261398c565b5b613b9f84828501613a1d565b604083015250606082013567ffffffffffffffff811115613bc357613bc261398c565b5b613bcf84828501613a1d565b60608301525092915050565b600067ffffffffffffffff821115613bf657613bf5613911565b5b602082029050602081019050919050565b600080fd5b6000613c1f613c1a84613bdb565b613971565b90508083825260208201905060208402830185811115613c4257613c41613c07565b5b835b81811015613c8957803567ffffffffffffffff811115613c6757613c66613991565b5b808601613c748982613a1d565b85526020850194505050602081019050613c44565b5050509392505050565b600082601f830112613ca857613ca7613991565b5b8135613cb8848260208601613c0c565b91505092915050565b600060808284031215613cd757613cd66138fb565b5b613ce16080613971565b90506000613cf184828501613a6e565b6000830152506020613d0584828501613a6e565b6020830152506040613d1984828501613a6e565b604083015250606082013567ffffffffffffffff811115613d3d57613d3c61398c565b5b613d4984828501613c93565b60608301525092915050565b600060408284031215613d6b57613d6a6138fb565b5b613d756040613971565b90506000613d8584828501613a6e565b600083015250602082013567ffffffffffffffff811115613da957613da861398c565b5b613db584828501613c93565b60208301525092915050565b600067ffffffffffffffff821115613ddc57613ddb613911565b5b602082029050602081019050919050565b600060408284031215613e0357613e026138fb565b5b613e0d6040613971565b9050600082013567ffffffffffffffff811115613e2d57613e2c61398c565b5b613e3984828501613a1d565b600083015250602082013567ffffffffffffffff811115613e5d57613e5c61398c565b5b613e6984828501613a1d565b60208301525092915050565b6000613e88613e8384613dc1565b613971565b90508083825260208201905060208402830185811115613eab57613eaa613c07565b5b835b81811015613ef257803567ffffffffffffffff811115613ed057613ecf613991565b5b808601613edd8982613ded565b85526020850194505050602081019050613ead565b5050509392505050565b600082601f830112613f1157613f10613991565b5b8135613f21848260208601613e75565b91505092915050565b600060808284031215613f4057613f3f6138fb565b5b613f4a6080613971565b9050600082013567ffffffffffffffff811115613f6a57613f6961398c565b5b613f7684828501613cc1565b600083015250602082013567ffffffffffffffff811115613f9a57613f9961398c565b5b613fa684828501613d55565b602083015250604082013567ffffffffffffffff811115613fca57613fc961398c565b5b613fd684828501613c93565b604083015250606082013567ffffffffffffffff811115613ffa57613ff961398c565b5b61400684828501613efc565b60608301525092915050565b600060e08284031215614028576140276138fb565b5b61403260e0613971565b905060006140428482850161388f565b60008301525060206140568482850161388f565b602083015250604082013567ffffffffffffffff81111561407a5761407961398c565b5b61408684828501613a1d565b604083015250606082013567ffffffffffffffff8111156140aa576140a961398c565b5b6140b684828501613a1d565b606083015250608082013567ffffffffffffffff8111156140da576140d961398c565b5b6140e684828501613a1d565b60808301525060a082013567ffffffffffffffff81111561410a5761410961398c565b5b61411684828501613a1d565b60a08301525060c082013567ffffffffffffffff81111561413a5761413961398c565b5b61414684828501613a1d565b60c08301525092915050565b6000806000806080858703121561416c5761416b613595565b5b600085013567ffffffffffffffff81111561418a5761418961359a565b5b61419687828801613a83565b945050602085013567ffffffffffffffff8111156141b7576141b661359a565b5b6141c387828801613b2b565b935050604085013567ffffffffffffffff8111156141e4576141e361359a565b5b6141f087828801613f2a565b925050606085013567ffffffffffffffff8111156142115761421061359a565b5b61421d87828801614012565b91505092959194509250565b600080604083850312156142405761423f613595565b5b600061424e858286016135e8565b925050602061425f858286016135e8565b9150509250929050565b600081519050919050565b600082825260208201905092915050565b6000819050602082019050919050565b600081519050919050565b600082825260208201905092915050565b60005b838110156142cf5780820151818401526020810190506142b4565b60008484015250505050565b60006142e682614295565b6142f081856142a0565b93506143008185602086016142b1565b61430981613900565b840191505092915050565b61431d81613a4b565b82525050565b600060a083016000830151848203600086015261434082826142db565b91505060208301516143556020860182614314565b5060408301516143686040860182614314565b50606083015161437b6060860182614314565b50608083015161438e6080860182614314565b508091505092915050565b60006080830160008301516143b1600086018261366f565b5060208301516143c4602086018261366f565b50604083015184820360408601526143dc82826142db565b915050606083015184820360608601526143f682826142db565b9150508091505092915050565b600081519050919050565b600082825260208201905092915050565b6000819050602082019050919050565b600061443b83836142db565b905092915050565b6000602082019050919050565b600061445b82614403565b614465818561440e565b9350836020820285016144778561441f565b8060005b858110156144b35784840389528151614494858261442f565b945061449f83614443565b925060208a0199505060018101905061447b565b50829750879550505050505092915050565b60006080830160008301516144dd6000860182614314565b5060208301516144f06020860182614314565b5060408301516145036040860182614314565b506060830151848203606086015261451b8282614450565b9150508091505092915050565b60006040830160008301516145406000860182614314565b50602083015184820360208601526145588282614450565b9150508091505092915050565b600081519050919050565b600082825260208201905092915050565b6000819050602082019050919050565b600060408301600083015184820360008601526145ae82826142db565b915050602083015184820360208601526145c882826142db565b9150508091505092915050565b60006145e18383614591565b905092915050565b6000602082019050919050565b600061460182614565565b61460b8185614570565b93508360208202850161461d85614581565b8060005b85811015614659578484038952815161463a85826145d5565b9450614645836145e9565b925060208a01995050600181019050614621565b50829750879550505050505092915050565b6000608083016000830151848203600086015261468882826144c5565b915050602083015184820360208601526146a28282614528565b915050604083015184820360408601526146bc8282614450565b915050606083015184820360608601526146d682826145f6565b9150508091505092915050565b600060e0830160008301516146fb600086018261366f565b50602083015161470e602086018261366f565b506040830151848203604086015261472682826142db565b9150506060830151848203606086015261474082826142db565b9150506080830151848203608086015261475a82826142db565b91505060a083015184820360a086015261477482826142db565b91505060c083015184820360c086015261478e82826142db565b9150508091505092915050565b600060c0830160008301516147b36000860182613656565b50602083015184820360208601526147cb8282614323565b915050604083015184820360408601526147e58282614399565b915050606083015184820360608601526147ff828261466b565b9150506080830151848203608086015261481982826146e3565b91505060a083015161482e60a0860182614314565b508091505092915050565b6000614845838361479b565b905092915050565b6000602082019050919050565b600061486582614269565b61486f8185614274565b93508360208202850161488185614285565b8060005b858110156148bd578484038952815161489e8582614839565b94506148a98361484d565b925060208a01995050600181019050614885565b50829750879550505050505092915050565b600060208201905081810360008301526148e9818461485a565b905092915050565b6148fa81613665565b82525050565b600060608201905061491560008301866138d1565b61492260208301856138d1565b61492f60408301846148f1565b949350505050565b600060c08301600083015161494f6000860182613656565b50602083015184820360208601526149678282614323565b915050604083015184820360408601526149818282614399565b9150506060830151848203606086015261499b828261466b565b915050608083015184820360808601526149b582826146e3565b91505060a08301516149ca60a0860182614314565b508091505092915050565b600060208201905081810360008301526149ef8184614937565b905092915050565b600060a0830160008301518482036000860152614a1482826142db565b9150506020830151614a296020860182614314565b506040830151614a3c6040860182614314565b506060830151614a4f6060860182614314565b506080830151614a626080860182614314565b508091505092915050565b6000608083016000830151614a85600086018261366f565b506020830151614a98602086018261366f565b5060408301518482036040860152614ab082826142db565b91505060608301518482036060860152614aca82826142db565b9150508091505092915050565b60006080830160008301518482036000860152614af482826144c5565b91505060208301518482036020860152614b0e8282614528565b91505060408301518482036040860152614b288282614450565b91505060608301518482036060860152614b4282826145f6565b9150508091505092915050565b600060e083016000830151614b67600086018261366f565b506020830151614b7a602086018261366f565b5060408301518482036040860152614b9282826142db565b91505060608301518482036060860152614bac82826142db565b91505060808301518482036080860152614bc682826142db565b91505060a083015184820360a0860152614be082826142db565b91505060c083015184820360c0860152614bfa82826142db565b9150508091505092915050565b614c1081613a4b565b82525050565b600060c082019050614c2b60008301896138d1565b8181036020830152614c3d81886149f7565b90508181036040830152614c518187614a6d565b90508181036060830152614c658186614ad7565b90508181036080830152614c798185614b4f565b9050614c8860a0830184614c07565b979650505050505050565b6000606082019050614ca860008301866148f1565b614cb560208301856138d1565b614cc260408301846148f1565b949350505050565b7f4e487b7100000000000000000000000000000000000000000000000000000000600052603260045260246000fd5b7f4e487b7100000000000000000000000000000000000000000000000000000000600052601160045260246000fd5b6000614d3382613665565b91507fffffffffffffffffffffffffffffffffffffffffffffffffffffffffffffffff8203614d6557614d64614cf9565b5b600182019050919050565b600082825260208201905092915050565b7f446f6e6f72206973206e6f7420726567697374657265642e0000000000000000600082015250565b6000614db7601883614d70565b9150614dc282614d81565b602082019050919050565b60006020820190508181036000830152614de681614daa565b9050919050565b6000604082019050614e0260008301856148f1565b614e0f60208301846138d1565b9392505050565b7f446f6e6f7220616c726561647920726567697374657265642e00000000000000600082015250565b6000614e4c601983614d70565b9150614e5782614e16565b602082019050919050565b60006020820190508181036000830152614e7b81614e3f565b9050919050565b7f4e487b7100000000000000000000000000000000000000000000000000000000600052602260045260246000fd5b60006002820490506001821680614ec957607f821691505b602082108103614edc57614edb614e82565b5b50919050565b60008190508160005260206000209050919050565b60006020601f8301049050919050565b600082821b905092915050565b600060088302614f447fffffffffffffffffffffffffffffffffffffffffffffffffffffffffffffffff82614f07565b614f4e8683614f07565b95508019841693508086168417925050509392505050565b6000819050919050565b6000614f8b614f86614f8184613665565b614f66565b613665565b9050919050565b6000819050919050565b614fa583614f70565b614fb9614fb182614f92565b848454614f14565b825550505050565b600090565b614fce614fc1565b614fd9818484614f9c565b505050565b5b81811015614ffd57614ff2600082614fc6565b600181019050614fdf565b5050565b601f8211156150425761501381614ee2565b61501c84614ef7565b8101602085101561502b578190505b61503f61503785614ef7565b830182614fde565b50505b505050565b600082821c905092915050565b600061506560001984600802615047565b1980831691505092915050565b600061507e8383615054565b9150826002028217905092915050565b61509782614295565b67ffffffffffffffff8111156150b0576150af613911565b5b6150ba8254614eb1565b6150c5828285615001565b600060209050601f8311600181146150f857600084156150e6578287015190505b6150f08582615072565b865550615158565b601f19841661510686614ee2565b60005b8281101561512e57848901518255600182019150602085019450602081019050615109565b8683101561514b5784890151615147601f891682615054565b8355505b6001600288020188555050505b505050505050565b7f4f6e6c792061646d696e2063616e20706572666f726d2074686973206163746960008201527f6f6e2e0000000000000000000000000000000000000000000000000000000000602082015250565b60006151bc602383614d70565b91506151c782615160565b604082019050919050565b600060208201905081810360008301526151eb816151af565b9050919050565b7f446f6e6f7220616464726573732063616e6e6f74206265207a65726f2e000000600082015250565b6000615228601d83614d70565b9150615233826151f2565b602082019050919050565b600060208201905081810360008301526152578161521b565b9050919050565b7f526563656976657220616464726573732063616e6e6f74206265207a65726f2e600082015250565b6000615294602083614d70565b915061529f8261525e565b602082019050919050565b600060208201905081810360008301526152c381615287565b9050919050565b60006040820190506152df60008301856138d1565b6152ec60208301846138d1565b9392505050565b7f446f6e6f72206e6f7420726567697374657265642e0000000000000000000000600082015250565b6000615329601583614d70565b9150615334826152f3565b602082019050919050565b600060208201905081810360008301526153588161531c565b905091905056fea26469706673582212205ec18dfa7f9504feb332ada4a4ed8d9e554011cb1c2c000ed83ab9d20754b6b764736f6c63430008130033",
  "linkReferences": {},
  "deployedLinkReferences": {}
}